:020000040800F2
:100000005005002001010008050300080103000855
:10001000030300086D0100085F09000800000000EC
:10002000000000000000000000000000DD040008E7
:100030006F01000800000000F503000889050008B2
:100040001B0100081B0100081B0100081B01000820
:100050001B0100081B0100081B0100081B01000810
:100060001B0100081B0100081B0100081B01000800
:100070001B0100081B0100081B0100081B010008F0
:100080001B0100081B0100081B0100081B010008E0
:100090001B0100081B0100081B0100081B010008D0
:1000A0001B0100081B0100081B0100081B010008C0
:1000B0001B0100081B0100081B0100081B010008B0
:1000C0001B0100081B0100081B0100081B010008A0
:1000D0001B01000821060008A106000821070008EE
:1000E000710100081B0100081B010008DFF80CD09B
:1000F00000F02AF8004800477D0A0008500500205B
:100100000648804706480047FEE7FEE7FEE7FEE7B1
:10011000FEE7FEE7FEE7FEE7FEE7FEE78D050008E7
:10012000ED00000840EA01039B0703D009E008C97D
:10013000121F08C0042AFAD203E011F8013B00F8AC
:10014000013B521EF9D27047064C074D06E0E068AD
:1001500040F0010394E8070098471034AC42F6D30E
:10016000FFF7C8FF880F0008A80F0008FEE77047D8
:10017000704700002DE9F84301210C2000F048F9F8
:1001800001214FF4C02000F037F90121880300F06D
:100190003FF90121480400F03BF94FF40070ADF83D
:1001A00000001826DFF8B4808DF8036003248DF872
:1001B00002406946404600F055F84FF48067ADF8BC
:1001C000007004258DF803508DF8024069464046C2
:1001D00000F048F8ADF800508DF803608DF802404B
:1001E0006946404600F03EF80820ADF800008DF862
:1001F00003508DF802406946404600F033F8ADF8F0
:1002000000708DF80360164E8DF802406946304646
:1002100000F028F86802ADF800008DF803508DF862
:1002200002406946304600F01DF82020ADF800007D
:1002300010258DF803508DF802406946404600F0C5
:1002400011F8ADF800508DF803508DF80240694662
:10025000404600F007F8BDE8F883000000080140C0
:10026000000C0140F0B5CC78002204F00F03E40646
:1002700001D58C7823430C784FF00F0C14F0FF0F4E
:100280004FF0010E1BD005680E880EFA02F42640CE
:10029000A64210D196000CFA06F725EA070703FAE2
:1002A00006F5CE783D43282E02D0482E02D002E03B
:1002B000446100E00461521C082AE5D305600A8805
:1002C000FF2A1CD94468002202F108060EFA06F53E
:1002D0000E882E40AE420ED196000CFA06F7BC43B3
:1002E00003FA06F7CE783C43282E00D14561CE783C
:1002F000482E00D10561521C082AE5D34460F0BDA8
:10030000FEE7FEE7704738B500214FF0006000F0CF
:1003100067F84FF4A06000F059F826208DF800002F
:1003200000258DF801508DF8025001248DF803400E
:10033000684600F019F827208DF800008DF801506C
:100340008DF802408DF80340684600F00DF8252036
:100350008DF800008DF801508DF802408DF80340B3
:10036000684600F001F838BD30B50F23C278017837
:100370000125F2B1144A126801F1E02102F4E062B1
:10038000C2F5E062120AC2F10404D3404278A240EE
:1003900084781C401443220181F80024007800F086
:1003A0001F018D404009800000F1E020C0F800519D
:1003B00030BD01F01F0085404809800000F1E020B9
:1003C000C0F8805130BD00000CED00E00249084348
:1003D00002490860704700000000FA050CED00E0DB
:1003E000024A1140014302480160704780FFFF1F2D
:1003F00008ED00E070470000044A0029D16901D0EF
:10040000014300E08143D1617047000000100240C9
:10041000044A0029916901D0014300E081439161C0
:10042000704700000010024030B5204A5168204B50
:1004300011F00C0103D0042901D0082901D0036078
:1004400012E05168536801F470114FF0020413F484
:10045000803F04EB914102D053689B0301D5154BBB
:1004600000E0134B5943016051680F2303EA111157
:10047000114B5C5C0168E14041605468072505EA66
:1004800014241C5D21FA04F48460546805EAD42421
:100490001B5DD940C1605268032303EA9232064BC8
:1004A0001B1F9A5CB1FBF2F1016130BD00100240EC
:1004B00000127A0000093D001400002030B5064DFE
:1004C00000222B1F05E0845C2C801C886406FCD570
:1004D000521C8A42F7D330BD0444004070470000EC
:1004E0000CB50022264800920192016841F4803147
:1004F00001604FF4A063016801F40031019100999B
:10050000491C0091019911B900999942F3D10168F0
:10051000890333D5012101911A490A6842F010027A
:100520000A600A6822F003020A600A6842F00202C6
:100530000A604168416041684160416841F48061FE
:100540004160416821F47C114160416841F4E81147
:100550004160016841F08071016001688901FCD54A
:10056000416821F003014160416841F002014160AE
:100570004168C1F381010229FAD10CBD01920CBD81
:100580000010024000200240704700000F4810B5E4
:10059000016841F00101016041680D4A114041606C
:1005A00001680C4A11400160016821F4802101605A
:1005B000416821F4FE0141604FF41F018160FFF7A3
:1005C0008FFF05494FF00060086010BD0010024029
:1005D0000000FFF8FFFFF6FE08ED00E01FB54FF446
:1005E000E13000900020ADF80400ADF80600ADF851
:1005F0000800ADF80C000C20084CADF80A00694664
:10060000204600F0F7F8012240F22551204600F084
:10061000D8F80121204600F0A4F81FBD00380140A1
:1006200010B50A4C40F22551204600F0ABF80028E6
:100630000BD0204600F034F9064A054B1178585487
:10064000491C117004490120087010BD0038014098
:100650002400002001000020000000201FB54FF4FE
:10066000E13000900020ADF80400ADF80600ADF8D0
:100670000800ADF80C000C20084CADF80A006946E3
:10068000204600F0B7F8012240F22551204600F044
:1006900098F80121204600F064F81FBD0044004096
:1006A00010B50A4C40F22551204600F06BF80028A6
:1006B0000BD0204600F0F4F8064A054B1178585448
:1006C000491C117004490120087010BD004400400D
:1006D0008800002003000020020000201FB54FF416
:1006E000164000900020ADF80400ADF80600ADF80B
:1006F0000800ADF80C000C20084CADF80A00694663
:10070000204600F077F8012240F22551204600F003
:1007100058F80121204600F024F81FBD0048004091
:1007200010B50A4C40F22551204600F02BF8002865
:100730000BD0204600F0B4F8064A054B1178585407
:10074000491C117004490120087010BD0048004088
:10075000EC0000200500002004000020C9430180B7
:1007600070470029818902D041F4005101E021F451
:100770000051818170470246002012880A4200D051
:100780000120704770B501F01F0501260024C1F358
:10079000421306FA05F2012B0FD0022B0FD0838AE9
:1007A0004FEA11210088134206FA01F600EA06001A
:1007B00001D000B10124204670BD8389F0E7038A8F
:1007C000EEE710B5C1F3421301F01F040121A1406F
:1007D000012B07D0022B07D01430002A026805D065
:1007E0000A4304E00C30F8E71030F6E78A43026071
:1007F00010BD000030B50446008A85B00D464CF6A9
:10080000FF710840E98801432182A0894EF6F31167
:100810000840A9882A8911436A8902431143A181AA
:10082000A08A4FF6FF410840A9890143A18268468A
:10083000FFF7FAFD1948844201D1039800E00298BD
:10084000A189090400EBC00101EB0010296801D562
:10085000490000E08900B0FBF1F06422B0FBF2F146
:1008600009010B096FF018056B4300EB8300A389A6
:100870001D044FF0320306D503EBC000B0FBF2F0CD
:1008800000F0070005E003EB0010B0FBF2F000F011
:100890000F000843208105B030BD00000038014042
:1008A0008088C0F308007047C1F308018180704759
:1008B0000FB47FB506460AAD0FE05C2914D000F1F5
:1008C0000100252909901DD03046FFF7EDFF40219A
:1008D0003046FFF750FF0028F9D009980178002929
:1008E000EBD17FBC5DF814FB401C099001786E29A8
:1008F00003D072291BD10D2100E00A213046FFF7F9
:10090000D3FF13E00178642914D073290FD110CDDF
:1009100009E03046FFF7C8FF40213046FFF72BFFC4
:100920000028F9D0641C21780029F2D10998401CD4
:100930000990CCE701CD0A22694600F06FF86C46B9
:1009400009E03046FFF7B0FF40213046FFF713FFC4
:100950000028F9D0641C21780029F2D1E6E7FEE7EF
:1009600002E008C8121F08C1002AFAD17047704778
:10097000002001E001C1121F002AFBD170470000D6
:100980004FF0E0210A6922F004020A610649C0081A
:1009900000EB40020870C2EBC0104FF6FF7202EA93
:1009A000C0004880704700000C00002008494988BA
:1009B00048434FF0E021486100238B61012008612A
:1009C0000869C20701D0C003FAD50B618B6170477B
:1009D0000C00002010B5FFF7D9FD4820FFF7D0FF2D
:1009E000FFF791FCFFF7C6FBFFF7F8FD4021084831
:1009F000FFF7B4FEFFF732FE40210648FFF7AEFED8
:100A0000FFF76CFEBDE8104040210348FFF7A6BE8B
:100A1000003801400044004000480040F0B5002587
:100A200004460B462E460A2A02D00E701846F0BD28
:100A3000002C1ED006DA4FF02D00187001F10103D2
:100A4000C4F1000442F210704FF00A0794FBF0F278
:100A500052EA050C06D002F1300503F8015B02FBF7
:100A60001044012590FBF7F00028EFDC1E700846CB
:100A7000F0BD302018704B1CF8E70000BAA0ADF5AF
:100A8000107DD0E90010CDE98D10B9A00DF1780CE2
:100A90000FC88CE80F00BAA00DF1880C0FC88CE8C5
:100AA0000F002422BAA115A8FFF73CFB2C22C1A1FC
:100AB0006846FFF737FBCAA00DF1980C0FC88CE809
:100AC0000F00CBA00DF1A80C0FC88CE80F00CCA034
:100AD0000DF1B80C0FC88CE80F00CDA00DF1C80CBB
:100AE0000FC88CE80F00CEA00DF1D80C0FC88CE811
:100AF0000F00CFA00DF1E80C0FC88CE80F00D0A0BC
:100B00000DF1F80C0FC88CE80F00D1A00DF5847C16
:100B10000FC88CE80F00D2A00DF58C7C0FC88CE8B4
:100B20000F00D3A00DF5947C0FC88CE80F00D4A063
:100B30000DF59C7C0FC88CE80F00D5A00DF5A47CAA
:100B40000FC88CE80F00D6A00DF5AC7C0FC88CE860
:100B50000F00D7A00DF5B47C0FC88CE80F00D8A00B
:100B60000DF5BC7C0FC88CE80F00D9A00DF5C47C36
:100B70000FC88CE80F00DAA00DF5CC7C0FC88CE80C
:100B80000F00DBA00DF5D47C0FC88CE80F00DCA0B3
:100B90000DF5DC7C0FC88CE80F00DDA00DF5E47CC2
:100BA0000FC88CE80F00DEA00DF5EC7C0FC88CE8B8
:100BB0000F00DFA00DF5F47C0FC88CE80F00E0A05B
:100BC0000DF5FC7C0FC88CE80F00E1A00DF5027C50
:100BD0000FC88CE80F001C22E1A186A8FFF7A2FA3B
:100BE0007EA0E64D006800268F906E60FFF7F2FE53
:100BF0004FF47A773846FFF7D9FEDFF884831EA9D1
:100C000044464046FFF754FE3846FFF7CFFE3846CD
:100C1000FFF7CCFE3846FFF7C9FE3846FFF7C6FEA1
:100C20003846FFF7C3FE8DA92046FFF741FE384640
:100C3000FFF7BCFE3846FFF7B9FE22A92046FFF7B2
:100C400037FE3846FFF7B2FE3846FFF7AFFE15A96C
:100C50002046FFF72DFE3846FFF7A8FE3846FFF77F
:100C6000A5FE3846FFF7A2FE3846FFF79FFE38463E
:100C7000FFF79CFE3846FFF799FE3846FFF796FED1
:100C80003846FFF793FE69462046FFF711FE3846C7
:100C9000FFF78CFE3846FFF789FE3846FFF786FEE1
:100CA00031E000242820FFF781FE2E700BA8B54A02
:100CB000697802E0135D0355641C8C42FADBA4F1F1
:100CC0000A006E70182813D2DFE800F00C0E212302
:100CD0002527292B2D2F31333537393B3D3F4143D4
:100CE0004547494B26A900E02AA94046FFF7E0FD09
:100CF0002820FFF75BFEA11E0BA8FFF7DFFB8FA9E3
:100D00004046FFF7D5FD28780028FCD0C9E72EA97A
:100D1000EBE732A9E9E736A9E7E73AA9E5E73EA913
:100D2000E3E742A9E1E746A9DFE74AA9DDE74EA9E3
:100D3000DBE752A9D9E756A9D7E75AA9D5E75EA9B3
:100D4000D3E762A9D1E766A9CFE76AA9CDE76EA983
:100D5000CBE772A9C9E776A9C7E77AA9C5E77EA953
:100D6000C3E782A9C1E7000041540D0A000000005A
:100D700041542B524553544F52450D0A0000000078
:100D800041542B43574D4F44453D330D0A0000005D
:100D900041542B43574A41503D226D697261636C47
:100DA00065222C2231323334353637383930220D32
:100DB0000A00000041542B43495053544152543DC2
:100DC00022544350222C223131352E3135392E32E6
:100DD00032302E313130222C323031360D0A0000C3
:100DE00041542B43495053454E443D380D0A0000B1
:100DF00041542B43495053454E443D390D0A0000A0
:100E000041542B43495053454E443D31300D0A0067
:100E100041542B43495053454E443D31310D0A0056
:100E200041542B43495053454E443D31320D0A0045
:100E300041542B43495053454E443D31330D0A0034
:100E400041542B43495053454E443D31340D0A0023
:100E500041542B43495053454E443D31350D0A0012
:100E600041542B43495053454E443D31360D0A0001
:100E700041542B43495053454E443D31370D0A00F0
:100E800041542B43495053454E443D31380D0A00DF
:100E900041542B43495053454E443D31390D0A00CE
:100EA00041542B43495053454E443D32300D0A00C6
:100EB00041542B43495053454E443D32310D0A00B5
:100EC00041542B43495053454E443D32320D0A00A4
:100ED00041542B43495053454E443D32330D0A0093
:100EE00041542B43495053454E443D32340D0A0082
:100EF00041542B43495053454E443D32350D0A0071
:100F000041542B43495053454E443D32360D0A005F
:100F100041542B43495053454E443D32370D0A004E
:100F200041542B43495053454E443D32380D0A003D
:100F300041542B43495053454E443D32390D0A002C
:100F400041542B43495053454E443D33300D0A0024
:100F500041542B43495053454E443D33310D0A0013
:100F6000546865206D6173736167652073656E6495
:100F70002073756363656564210000000400002030
:100F800000440040EC000020A80F000800000020F2
:100F90002400000060090008CC0F00082400002095
:100FA0002C0500007009000800000000000000008F
:100FB000000000000000000002040608000000001D
:0C0FC000010203040102030406070809F3
:04000005080000ED02
:00000001FF
