:020000040800F2
:1000000078050020010100081D4E00083506000893
:10001000D94D0008470400080755000800000000FB
:1000200000000000000000000000000091500008E7
:1000300049040008000000000D4F00083D51000871
:100040001B0100081B0100081B0100081B01000820
:100050001B0100081B0100081B0100081B01000810
:100060001B0100081B0100081B0100081B01000800
:100070001B0100081B0100081B0100081B010008F0
:100080001B0100081B0100081B0100081B010008E0
:100090001B0100081B0100081B0100081B010008D0
:1000A0001B0100081B0100081B0100081B010008C0
:1000B0001B0100081B0100081B0100081B010008B0
:1000C0001B0100081B0100081B0100081B010008A0
:1000D0001B010008D551000851520008CD520008FC
:1000E0004B0400081B0100081B010008DFF80CD0BE
:1000F00000F088F90048004775570008780500208F
:100100000648804706480047FEE7FEE7FEE7FEE7B1
:10011000FEE7FEE7FEE7FEE7FEE7FEE741510008E7
:10012000ED0000082DE9FE4F81EA030404F00044CD
:1001300021F0004100944FF0000B23F0004350EAFF
:1001400001045ED052EA03045BD0C3F30A54C1F346
:100150000A552C44A4F2F3340194A0FB0254C1F3D9
:10016000130141F48011C3F3130343F4801301FB23
:10017000024400FB034E840A970A44EA815447EA8A
:100180008357A4FB076802958D0A05FB07854FEA94
:10019000932C04FB0C542705029D4FEA065847EAAE
:1001A0001637B5EB08056EEB070C870E920E47EA83
:1001B000811742EA8312A7FB0201B6EB0B0164EB45
:1001C00000042B0D43EA0C335E1844EB1C50DA4656
:1001D0005146E7FB0201C5F313044FEA0B3343EA30
:1001E00014534FEA0432019C43EA0603A4F10C04C1
:1001F0000294009CCDE900B400F0B6F803B0BDE86D
:10020000F08F00200146F9E7C10F80EAE070084452
:10021000CA079623002100F06CB80EB540F23341B6
:1002200002910021CDE900110A460B4600F09CF82E
:1002300003B000BD00F0004220F00040C10DC0F34B
:10024000160040F400007F2901DA0020704796294B
:1002500003DCC1F19601C84001E096398840002ACC
:10026000F4D04042704720F00040C10DC0F31600AA
:1002700040F400007F2901DA00207047962903DC52
:10028000C1F19601C8407047963988407047C1F364
:100290000A5210B5C1F3130140F2FF3341F480114B
:1002A0009A4201DA002010BD40F233439A42A2F292
:1002B000334203DC524200F003F810BD904010BD01
:1002C000202A04DB203A21FA02F00021704721FAAB
:1002D00002F3D040C2F12002914008431946704712
:1002E0000029A8BF7047401C490008BF20F001004A
:1002F000704710B4B0FA80FC00FA0CF050EA010428
:1003000004BF10BC704749B1CCF1200421FA04F4B9
:1003100011FA0CF118BF012121430843A3EB0C0192
:10032000CB1D4FEA00614FEA102042BF002010BCF5
:10033000704700EBC35010440029A4BF10BC7047A5
:10034000401C490008BF20F0010010BC704710B5E8
:10035000002B08DA401C41F1000192185B411A435E
:1003600001D120F0010010BD2DE9F04D92469B46D1
:1003700011B1B1FA81F202E0B0FA80F22032904677
:1003800000F052F804460F4640EA0A0041EA0B0129
:1003900053465A46084313D0114653EA010019D078
:1003A000C8F140025046FFF78BFF05460E46504607
:1003B0005946424600F038F8084305D0012004E0D1
:1003C00020463946BDE8F08D0020054346EAE07638
:1003D0002C4337430A986305E40AA0EB0800002287
:1003E000FD0A44EA47540A3002D500200146E9E7F5
:1003F000010510196941DDE9084500196941BDE8A9
:10040000F04DA4E7064C074D06E0E06840F001031C
:1004100094E8070098471034AC42F6D3FFF76AFE21
:100420001470000834700008202A04DB203A00FA17
:1004300002F1002070479140C2F1200320FA03F33B
:10044000194390407047FEE7704770472DE9F84325
:1004500001210C2004F0C6FD01214FF4C02004F05E
:10046000B5FD0121880304F0BDFD0121480404F01D
:10047000B9FD4FF40070ADF800001826DFF8B48025
:100480008DF8036003248DF802406946404600F071
:1004900055F84FF48067ADF8007004258DF80350CF
:1004A0008DF802406946404600F048F8ADF800502B
:1004B0008DF803608DF802406946404600F03EF832
:1004C0000820ADF800008DF803508DF80240694611
:1004D000404600F033F8ADF800708DF80360164E1A
:1004E0008DF802406946304600F028F86802ADF801
:1004F00000008DF803508DF802406946304600F048
:100500001DF82020ADF8000010258DF803508DF85F
:1005100002406946404600F011F8ADF800508DF8F1
:1005200003508DF802406946404600F007F8BDE8E8
:10053000F883000000080140000C0140F0B5CC78C1
:10054000002204F00F03E40601D58C7823430C78D5
:100550004FF00F0C14F0FF0F4FF0010E1BD0056889
:100560000E880EFA02F42640A64210D196000CFA2C
:1005700006F725EA070703FA06F5CE783D43282E4D
:1005800002D0482E02D002E0446100E00461521C17
:10059000082AE5D305600A88FF2A1CD9446800228E
:1005A00002F108060EFA06F50E882E40AE420ED174
:1005B00096000CFA06F7BC4303FA06F7CE783C43E4
:1005C000282E00D14561CE78482E00D10561521CFD
:1005D000082AE5D34460F0BDF0B5144C002801DAD8
:1005E000E36900E06368450D2E0185B2C0F3015751
:1005F000B540C0F30342032F05D0C6020AD5032637
:100600009640B34307E023F07062636823F07063A1
:10061000636002E0AB4343F0706201B12A430028FB
:1006200001DAE261F0BD6260F0BD0000000001404F
:1006300001617047FEE7000070B50D4C0025C4F85D
:10064000B0510C48416821F470414160416841F467
:1006500040514160C4F8AC51022004F5D67405F055
:1006600021F801206060022005F01CF8656070BD73
:10067000000022420010014008B50121102004F0C2
:10068000B1FC4FF4C050ADF8000010208DF803000D
:1006900003208DF8020069460448FFF74FFF044825
:1006A0000121C0F8B011C0F8AC1108BD0010014024
:1006B0000000224270B50D4C0026C4F8B0610C4811
:1006C000416821F470414160416841F4405141600A
:1006D0000125C4F8AC51022004F5D67404F0E2FF01
:1006E0006560022004F0DEFF666070BD00002242FB
:1006F000001001402DE9F047814617480024416869
:1007000021F470414160416841F400414160134E61
:10071000254627464FF00108C6F8B071022004F0C4
:10072000C1FFC6F8B0816006040ED6F82C0108B1EE
:10073000641CE4B2012004F0B5FF6D1CEDB2082D7D
:10074000EAD3B9F1000F04D0FFF776FF2046BDE8E9
:10075000F087FFF7AFFFF9E70010014000002242E9
:100760002DE9F04105461548416821F4704141608A
:10077000416841F440514160114E0027C6F8B07104
:100780003C464FF00108E809C6F8AC016806050EC2
:10079000022004F087FFC6F8B081022004F082FF37
:1007A000C6F8B071022004F07DFF641CE4B2082C8E
:1007B000E9D3BDE8F04100F047B800000010014067
:1007C0000000224270B50D48416821F4704141603B
:1007D000416841F440514160094C0120C4F8AC012A
:1007E000C4F8B001042004F5D67404F05BFF0025C2
:1007F0002560042004F056FF656070BD00100140C4
:10080000000022420E4810B5416821F47041416059
:10081000416841F4405141600A4C0020C4F8B001E5
:10082000C4F8AC01042004F5D67404F03BFF0120A9
:1008300060602060BDE81040042004F033BF000079
:10084000001001400000224270B5124800244168A7
:1008500021F470414160416841F4004141600E4D16
:100860000120C5F8B001052004F01CFF07E0641C5E
:10087000E4B2FA2C03D9FFF7C5FF012070BDD5F80B
:100880002C010028F3D1C5F8B001052004F00AFFBF
:10089000002070BD00100140000022422DE9F0430D
:1008A0001C4F0646002438887D884543B888A0F54B
:1008B000D041043902D1B87901280CD00021084672
:1008C00003F0CCFF04F06CFA13494FF480774B151A
:1008D000124A80201AE00020B8714FF02A08A7F8C9
:1008E0000A804FF02B09A7F80C90014603F0B6FFE1
:1008F0000120B871A7F80A90A7F80C80E2E70F6111
:100900004B611660486108610B61641CAC42F6D310
:10091000BDE8F08364010020001001400C0C014090
:100920002DE9F04F4A492A232B24898845F2105A91
:100930004FF4305B4FF4285E4FF448754FF0F00CE5
:1009400049F241394FF4A07745F210364FF4F07276
:1009500080B13F484FF00108494580F80680078084
:10096000A0F802C001D0B1423ED12C2505814381BF
:10097000848157E036484FF00008494580F80680EA
:10098000A0F800C0478006D0A1F5D04CBCF1040C03
:1009900001D0B1420CD12C2505814381A1F5D04372
:1009A0008481043B01D0B14244D10780428041E0C0
:1009B000514507D1A0F808B0A0F80AE04FF42C5137
:1009C00081810EE0A1F5C856633E06D02221018147
:1009D00020214181212181812CE02C210181448130
:1009E00083810280458025E0A1F5D04CBCF1040C48
:1009F00009D051450BD1A0F808B0A0F80AE04FF497
:100A00002C53838121E02C250581448109E0A1F547
:100A1000C85CBCF1630C12D02223038121234381E3
:100A200020238381A1F5D043043B01D0B14201D101
:100A300002804780BDE8F04F002003F095BD4FF0E5
:100A40002C0CA0F808C04381848105804280E9E72E
:100A5000640100202DE9F74F05468F4881B0DFF88B
:100A60003CA2818802982F0A00F0FF094FEA102863
:100A7000E8B200908848A1F513424FF4807B40898A
:100A80004FF40076413A17D0834CA1F5A642103AB4
:100A900012D0B2F5007236D02246A1F5C85793792C
:100AA0001288521B521E633F63D0A1F5D047043F0A
:100AB0007ED0012B7DD0D1E004F060F9784CC4F8F1
:100AC00010B06661CAF800708025656125612661F5
:100AD000C4F810B066610098CAF80000656125612D
:100AE00026616D48808904F049F9C4F810B0666148
:100AF0005146CAF80080656125612661C4F810B0CE
:100B00006661484631E004F039F9654CC4F810B02C
:100B10006661CAF8007080256561256126615E48BE
:100B20004089401C80B204F029F9C4F810B0666115
:100B30000098CAF8000065612561266156488089E1
:100B400004F01CF9C4F810B06661CAF80080656151
:100B50002561266150488089401C80B204F00EF95E
:100B6000C4F810B066614846514608606561256169
:100B700071E003B995B204F001F9494CC4F810B022
:100B80006661280ACAF8000080276761276126612C
:100B9000C4F810B06661E9B2CAF800106761276155
:100BA0002661C4F810B06661CAF80000676101E010
:100BB00024E052E027612661C4F810B06661CAF8EB
:100BC00000106761276126613348808904F0D6F8F8
:100BD000C4F810B066615146CAF8008067612761A9
:100BE0002661C4F810B06661CAF800906761276199
:100BF0002661C4F810B06661404621E0012B00D1A7
:100C000095B204F0BBF8264CC4F810B06661290A0E
:100C1000CAF800108027676127612661C4F810B008
:100C20006661E9B2CAF800106761276126611A4857
:100C3000808904F0A3F8C4F810B0666140465146BC
:100C40000860676127612661C4F810B06661C1F869
:100C5000009067612761266107E095B2294604F09C
:100C6000A5F8A089029904F0A1F80D48C0F814B0C5
:100C7000466109490989CAF8001080214161016172
:100C80000661C0F810B04661039BCAF800304161AC
:100C900001610661BDE8FF8F640100200C0C01407A
:100CA000001001402DE9F84F0121192004F09AF9B4
:100CB0000121FE48FFF790FC4FF4F860ADF800000A
:100CC00010208DF8030003208DF802006946F848D3
:100CD000FFF734FC4FF4F861F548FFF7A9FCF54D38
:100CE0004FF6FF74ADF8004069462846FFF726FC32
:100CF00021462846FFF79CFC322004F0BFFC01216E
:100D0000002004F053F8322004F0B8FC002003F077
:100D1000D5FBE94D4FF4807449F24138A88046F67E
:100D2000040945F2103A45F21056FF2806D3A0F503
:100D30007F41FF3902D0B0F5134F6DD1D32004F0BD
:100D40001DF803F083FB03F081FB03F07FFB4FF6FC
:100D5000FF7707EA0020A88003F078FBA988084302
:100D6000A880404558D0BF2004F008F803F06EFB7F
:100D700003F06CFB03F06AFB03F068FB07EA00205A
:100D8000A88003F063FBA9880843A880484543D0A6
:100D9000D42003F0F3FF03F059FB03F057FB03F0FB
:100DA00055FB07EA0020A88003F050FBA988084300
:100DB000A880504530D04FF45A4003F0DFFF03F0D5
:100DC00045FB4FF45B4003F0D9FF03F03FFB07EA1C
:100DD0000020A8804FF45C4003F0D0FF03F036FB06
:100DE000A9880843A880B0F5004F7DD0B04213D049
:100DF000A12003F0C3FF03F029FBA88003F026FB2A
:100E000007EA0020A88003F021FBA9880843A0F589
:100E1000AE41A880613968D080B2404566D1CF200C
:100E200003F0ACFF002003F097FFC12003F094FF14
:100E3000302003F091FFED2003F0A0FF642003F0C9
:100E40008BFF032003F088FF122003F085FF812031
:100E500003F082FFE82003F091FF852003F07CFF80
:100E6000102003F079FF7A2003F076FFCB2003F007
:100E700085FF392003F070FF2C2003F06DFF002068
:100E800003F06AFF342003F067FF022003F064FFE1
:100E9000F72003F073FF202003F05EFFEA2003F049
:100EA0006DFF002003F058FF002003F055FFC02025
:100EB00003F064FF1B2003F04FFFC12003F05EFF2F
:100EC000012003F049FFC52003F058FF302003F054
:100ED00043FF302003F040FFC72003F04FFFB7204F
:100EE00003F03AFF362002E0B1E0ABE0B2E003F0FD
:100EF00045FF482003F030FF3A2003F03FFF552024
:100F000003F02AFFB12003F039FF002003F024FF93
:100F10001A2003F021FFB62003F030FF0A2003F06F
:100F20001BFFA22003F018FFF22003F027FF002090
:100F300003F012FF262003F021FF012003F00CFF35
:100F4000E02003F01BFF0F2003F006FF2A2003F030
:100F500003FF282003F000FF082003F0FDFE0E2011
:100F600003F0FAFE082003F0F7FE542003F0F4FE2D
:100F7000A92003F0F1FE432003F0EEFE0A2003F067
:100F8000EBFE0F2003F0E8FE002003F0E5FE00205A
:100F900003F0E2FE002003F0DFFE002003F0DCFEA1
:100FA000E12003F0EBFE002003F0D6FE152003F055
:100FB000D3FE172003F0D0FE072003F0CDFE112052
:100FC00003F0CAFE062003F0C7FE2B2003F0C4FE88
:100FD000562003F0C1FE3C2003F0BEFE052003F0C6
:100FE000BBFE102003F0B8FE0F2003F0B5FE3F203B
:100FF00003F0B2FE3F2003F0AFFE0F2003F0ACFE83
:101000002B2003F0BBFE002003F0A6FE002003F01F
:10101000A3FE012003F0A0FE3F2003F09DFE2A2046
:1010200003F0ACFE002003F097FE002003F094FED6
:10103000002003F091FEEF2003F08EFE112003F05C
:101040009DFEB7E041F66310A88003F069B8AE805A
:1010500001F034B848457DD1112003F08FFE1420F3
:1010600004F00CFBD02003F089FE072003F074FE8F
:10107000422003F071FE1D2003F06EFED12003F02C
:101080007DFE002003F068FE1A2003F065FE0920B3
:1010900003F062FED22003F071FE012003F05CFE3B
:1010A000222003F059FEC02008E0000000023000BA
:1010B00000100140000C01406401002003F05EFEBE
:1010C000102003F049FE3B2003F046FE002003F011
:1010D00043FE022003F040FE112003F03DFEC52038
:1010E00003F04CFE032003F037FEC82003F046FE59
:1010F000002003F031FE252003F02EFE212003F016
:101100002BFE052003F028FE002003F025FE0A2018
:1011100003F022FE652003F01FFE252003F01CFED5
:10112000772003F019FE502003F016FE0F2003F085
:1011300013FE002003F010FEF82003F01FFE012034
:1011400003F00AFEFE2003F019FE002003F004FE67
:10115000022000E034E003F0FFFD202003F00EFE4B
:10116000362003F00BFE082003F0F6FD3A2003F0D2
:1011700005FE552003F0F0FD2B2003F0FFFD0020BD
:1011800003F0EAFD002003F0E7FD012003F0E4FD99
:101190003F2003F0E1FD2A2003F0F0FD002003F0E2
:1011A000DBFD002003F0D8FD012003F0D5FDDF209A
:1011B00003F0D2FD782004F061FA292001F0FBBE93
:1011C00050457CD1ED2003F0D9FD012003F0C4FD92
:1011D000FE2003F0C1FDEE2003F0D0FDDE2003F081
:1011E000BBFD212003F0B8FDF12003F0C7FD012075
:1011F00003F0B2FDDF2003F0C1FD102003F0ACFDD1
:10120000C42003F0BBFD8F2003F0A6FDC62003F031
:10121000B5FD002003F0A0FDE22003F09DFDE220DB
:1012200003F09AFDE22003F097FDBF2003F0A6FD36
:10123000AA2003F091FDB02003F0A0FD0D2003F0E3
:101240008BFD002003F088FD0D2003F085FD0020BC
:1012500003F082FD112003F07FFD002003F07CFDF0
:10126000192003F079FD002003F076FD212003F022
:1012700073FD002003F070FD2D2003F06DFD0020B4
:1012800003F06AFD3D2003F067FD002003F064FDDC
:101290005D2003F061FD002003F05EFD5D2003F0A2
:1012A0005BFD002003F058FDB12003F067FD8020B6
:1012B00003F052FD002003F04FFD8B2000E0FCE323
:1012C00003F04AFD002003F047FD962003F044FDA3
:1012D000002003F041FDB22003F050FD002003F098
:1012E0003BFD002003F038FD022003F035FD002017
:1012F00003F032FD032003F02FFD002003F02CFD4E
:10130000B32003F03BFD002003F026FD002003F096
:1013100023FD002003F020FD002003F01DFD002030
:1013200003F01AFD002003F017FD002003F014FD68
:10133000002003F011FD002003F00EFD002003F05B
:101340000BFD002003F008FD002003F005FD002048
:1013500003F002FD002003F0FFFC002003F0FCFC82
:10136000002003F0F9FC002003F0F6FC002003F05D
:10137000F3FC002003F0F0FC002003F0EDFC002063
:1013800003F0EAFC002003F0E7FC002003F0E4FC9B
:10139000002003F0E1FCB42003F0F0FC8B2003F00C
:1013A000DBFC002003F0D8FC962003F0D5FC0020E5
:1013B00003F0D2FCA12003F0CFFC002003F0CCFC12
:1013C000B52003F0DBFC022003F0C6FC002003F094
:1013D000C3FC032003F0C0FC002003F0BDFC04208C
:1013E00003F0BAFC002003F0B7FCB62003F0C6FC03
:1013F000002003F0B1FC002003F0AEFCB72003F0A6
:10140000BDFC002003F0A8FC002003F0A5FC3F2059
:1014100003F0A2FC002003F09FFC5E2003F09CFC84
:10142000002003F099FC642003F096FC002003F0F8
:1014300093FC8C2003F090FC002003F08DFCAC208A
:1014400003F08AFC002003F087FCDC2003F084FC1E
:10145000002003F081FC702003F07EFC002003F0EC
:101460007BFC902003F078FC002003F075FCEB205F
:1014700003F072FC002003F06FFCDC2003F06CFC36
:10148000002003F069FCB82003F078FC002003F092
:1014900063FC002003F060FC002003F05DFC0020F2
:1014A00003F05AFC002003F057FC002003F054FC2A
:1014B000002003F051FC002003F04EFCBA2003F0A2
:1014C0005DFC242003F048FC002003F045FC0020D4
:1014D00003F042FC002003F03FFCC12003F04EFC6F
:1014E000202003F039FC002003F036FC542003F0E8
:1014F00033FC002003F030FCFF2003F02DFC002023
:1015000003F02AFCC22003F039FC0A2003F024FC7B
:10151000002003F021FC042003F01EFC002003F057
:101520001BFCC32003F02AFC3C2003F015FC002028
:1015300003F012FC3A2003F00FFC002003F00CFC37
:10154000392003F009FC002003F006FC372003F0EB
:1015500003FC002003F000FC3C2003F0FDFB002016
:1015600003F0FAFB362003F0F7FB002003F0F4FB56
:10157000322003F0F1FB002003F0EEFB2F2003F0FC
:10158000EBFB002003F0E8FB2C2003F0E5FB002040
:1015900003F0E2FB292003F0DFFB002003F0DCFB7B
:1015A000262003F0D9FB002003F0D6FB242003F013
:1015B000D3FB002003F0D0FB242003F0CDFB002060
:1015C00003F0CAFB232003F0C7FB002003F0C4FB99
:1015D0003C2003F0C1FB002003F0BEFB362003F0EB
:1015E000BBFB002003F0B8FB322003F0B5FB00206A
:1015F00003F0B2FB2F2003F0AFFB002003F0ACFBA5
:101600002C2003F0A9FB002003F0A6FB292003F007
:10161000A3FB002003F0A0FB262003F09DFB00208D
:1016200003F09AFB242003F097FB002003F094FBC7
:10163000242003F091FB002003F08EFB232003F015
:101640008BFB002003F088FBC42003F097FB622093
:1016500003F082FB002003F07FFB052003F07CFBFE
:10166000002003F079FB842003F076FB002003F0D8
:1016700073FBF02003F070FB002003F06DFB1820DB
:1016800003F06AFB002003F067FBA42003F064FB77
:10169000002003F061FB182003F05EFB002003F044
:1016A0005BFB502003F058FB002003F055FB0C209F
:1016B00003F052FB002003F04FFB172003F04CFB1C
:1016C000002003F049FB952003F046FB002003F0C7
:1016D00043FBF32003F040FB002003F03DFBE6203A
:1016E00003F03AFB002003F037FBC52003F046FB74
:1016F000322003F031FB002003F02EFB442003F0E6
:101700002BFB002003F028FB652003F025FB0020C5
:1017100003F022FB762003F01FFB002003F01CFBEC
:10172000882003F019FB002003F016FBC62003F00D
:1017300025FB202003F010FB002003F00DFB1720F9
:1017400003F00AFB002003F007FB012003F004FB79
:10175000002003F001FBC72003F010FB002003F082
:10176000FBFA002003F0F8FA002003F0F5FA00205D
:1017700003F0F2FAC82003F001FB002003F0ECFABA
:10178000002003F0E9FA002003F0E6FA002003F05D
:10179000E3FAC92003F0F2FA002003F0DDFA00209A
:1017A00003F0DAFA002003F0D7FA002003F0D4FAAD
:1017B000002003F0D1FA002003F0CEFA002003F05D
:1017C000CBFA002003F0C8FA002003F0C5FA00208D
:1017D00003F0C2FA002003F0BFFA002003F0BCFAC5
:1017E000002003F0B9FA002003F0B6FA002003F05D
:1017F000B3FA002003F0B0FAE02003F0BFFA16209D
:1018000003F0AAFA002003F0A7FA1C2003F0A4FAC0
:10181000002003F0A1FA212003F09EFA002003F03B
:101820009BFA362003F098FA002003F095FA462040
:1018300003F092FA002003F08FFA522003F08CFAA2
:10184000002003F089FA642003F086FA002003F0F8
:1018500083FA7A2003F080FA002003F07DFA8B20CF
:1018600003F07AFA002003F077FA992003F074FA73
:10187000002003F071FAA82003F06EFA002003F0B4
:101880006BFAB92003F068FA002003F065FAC4206F
:1018900003F062FA002003F05FFACA2003F05CFA5A
:1018A000002003F059FAD22003F056FA002003F08A
:1018B00053FAD92003F050FA002003F04DFAE0204B
:1018C00003F04AFA002003F047FAF32003F044FA49
:1018D000002003F041FAE12003F050FA162003F053
:1018E0003BFA002003F038FA1C2003F035FA002000
:1018F00003F032FA222003F02FFA002003F02CFA32
:10190000362003F029FA002003F026FA452003F0E0
:1019100023FA002003F020FA522003F01DFA0020E1
:1019200003F01AFA642003F017FA002003F014FA07
:101930007A2003F011FA002003F00EFA8B2003F056
:101940000BFA002003F008FA992003F005FA0020B2
:1019500003F002FAA82003F0FFF9002003F0FCF9DD
:10196000B92003F0F9F9002003F0F6F9C42003F0E0
:10197000F3F9002003F0F0F9CA2003F0EDF900209C
:1019800003F0EAF9D22003F0E7F9002003F0E4F9CC
:10199000D82003F0E1F9002003F0DEF9E02003F0A5
:1019A000DBF9002003F0D8F9F32003F0D5F900208B
:1019B00003F0D2F9E22003F0E1F9052003F0CCF9BD
:1019C000002003F0C9F90B2003F0C6F9002003F052
:1019D000C3F91B2003F0C0F9002003F0BDF9342047
:1019E00003F0BAF9002003F0B7F9442003F0B4F98A
:1019F000002003F0B1F94F2003F0AEF9002003F00E
:101A0000ABF9612003F0A8F9002003F0A5F97920D3
:101A100003F0A2F9002003F09FF9882003F09CF95D
:101A2000002003F099F9972003F096F9002003F0C5
:101A300093F9A62003F090F9002003F08DF9B72068
:101A400003F08AF9002003F087F9C22003F084F93B
:101A5000002003F081F9C72003F07EF9002003F095
:101A60007BF9D12003F078F9002003F075F9D62036
:101A700003F072F9002003F06FF9DD2003F06CF938
:101A8000002003F069F9F32003F066F9002003F069
:101A900063F9E32003F072F9052003F05DF90020FB
:101AA00003F05AF90A2003F057F9002003F054F923
:101AB0001C2003F051F9002000E0FDE203F04CF996
:101AC000332003F049F9002003F046F9442003F0E5
:101AD00043F9002003F040F9502003F03DF90020C5
:101AE00003F03AF9622003F037F9002003F034F9EB
:101AF000782003F031F9002003F02EF9882003F05C
:101B00002BF9002003F028F9972003F025F9002095
:101B100003F022F9A62003F01FF9002003F01CF9BE
:101B2000B72003F019F9002003F016F9C22003F0E2
:101B300013F9002003F010F9C72003F00DF900207D
:101B400003F00AF9D12003F007F9002003F004F9AB
:101B5000D52003F001F9002003F0FEF8DD2003F0AA
:101B6000FBF8002003F0F8F8F32003F0F5F800206C
:101B700003F0F2F8E42003F001F9012003F0ECF89F
:101B8000002003F0E9F8012003F0E6F8002003F05C
:101B9000E3F8022003F0E0F8002003F0DDF82A204B
:101BA00003F0DAF8002003F0D7F83C2003F0D4F873
:101BB000002003F0D1F84B2003F0CEF8002003F012
:101BC000CBF85D2003F0C8F8002003F0C5F87420BE
:101BD00003F0C2F8002003F0BFF8842003F0BCF843
:101BE000002003F0B9F8932003F0B6F8002003F0CA
:101BF000B3F8A22003F0B0F8002003F0ADF8B32052
:101C000003F0AAF8002003F0A7F8BE2003F0A4F820
:101C1000002003F0A1F8C42003F09EF8002003F098
:101C20009BF8CD2003F098F8002003F095F8D3201E
:101C300003F092F8002003F08FF8DD2003F08CF819
:101C4000002003F089F8F32003F086F8002003F069
:101C500083F8E52003F092F8002003F07DF80020DF
:101C600003F07AF8002003F077F8002003F074F80E
:101C7000022003F071F8002003F06EF8292003F031
:101C80006BF8002003F068F83C2003F065F80020B2
:101C900003F062F84B2003F05FF8002003F05CF8DB
:101CA0005D2003F059F8002003F056F8742003F08B
:101CB00053F8002003F050F8842003F04DF8002082
:101CC00003F04AF8932003F047F8002003F044F8AB
:101CD000A22003F041F8002003F03EF8B32003F007
:101CE0003BF8002003F038F8BE2003F035F8002060
:101CF00003F032F8C42003F02FF8002003F02CF892
:101D0000CD2003F029F8002003F026F8D32003F0BB
:101D100023F8002003F020F8DC2003F01DF8002059
:101D200003F01AF8F32003F017F8002003F014F87A
:101D3000E62003F023F8112003F00EF8002003F052
:101D40000BF8342003F008F8002003F005F85620C3
:101D500003F002F8002002F0FFFF762002F0FCFF03
:101D6000002002F0F9FF772002F0F6FF002002F0D9
:101D7000F3FF662002F0F0FF002002F0EDFF882064
:101D800002F0EAFF002002F0E7FF992002F0E4FFF2
:101D9000002002F0E1FFBB2002F0DEFF002002F095
:101DA000DBFF992002F0D8FF002002F0D5FF66206B
:101DB00002F0D2FF002002F0CFFF552002F0CCFF4E
:101DC000002002F0C9FF552002F0C6FF002002F0FB
:101DD000C3FF452002F0C0FF002002F0BDFF4320FA
:101DE00002F0BAFF002002F0B7FF442002F0B4FF77
:101DF000002002F0B1FFE72002F0C0FF322002F025
:101E0000ABFF002002F0A8FF552002F0A5FF002044
:101E100002F0A2FF762002F09FFF002002F09CFF5C
:101E2000662002F099FF002002F096FF672002F082
:101E300093FF002002F090FF672002F08DFF00204A
:101E400002F08AFF872002F087FF002002F084FF63
:101E5000992002F081FF002002F07EFFBB2002F0FB
:101E60007BFF002002F078FF992002F075FF002030
:101E700002F072FF772002F06FFF002002F06CFF8B
:101E8000442002F069FF002002F066FF562002F0B5
:101E900063FF002002F060FF232002F05DFF0020BE
:101EA00002F05AFF332002F057FF002002F054FFE7
:101EB000452002F051FF002002F04EFFE82002F022
:101EC0005DFF002002F048FF002002F045FF99204E
:101ED00002F042FF002002F03FFF872002F03CFFAB
:101EE000002002F039FF882002F036FF002002F0C7
:101EF00033FF772002F030FF002002F02DFF662034
:101F000002F02AFF002002F027FF882002F024FFC1
:101F1000002002F021FFAA2002F01EFF002002F0A4
:101F20001BFFBB2002F018FF002002F015FF9920D4
:101F300002F012FF002002F00FFF662002F00CFFFB
:101F4000002002F009FF552002F006FF002002F0F9
:101F500003FF552002F000FF002002F0FDFE4420A8
:101F600002F0FAFE002002F0F7FE442002F0F4FE38
:101F7000002002F0F1FE552002F0EEFE002002F0FB
:101F8000EBFEE92002F0FAFEAA2002F0E5FE0020B6
:101F900002F0E2FE002002F0DFFE002002F0DCFE94
:101FA000002002F0EBFEAA2002F0D6FECF2002F0C5
:101FB000E5FE002002F0D0FE002002F0CDFE002061
:101FC00002F0CAFE002002F0C7FE002002F0C4FEAC
:101FD000002002F0C1FE002002F0BEFE002002F050
:101FE000BBFE002002F0B8FE002002F0B5FE00208B
:101FF00002F0B2FE002002F0AFFE002002F0ACFEC4
:10200000002002F0A9FE002002F0A6FE002002F04F
:10201000A3FE002002F0A0FEF02002F0AFFE0020A0
:1020200002F09AFE502002F097FE002002F094FE8B
:10203000002002F091FE002002F08EFEF32002F05C
:102040009DFE002002F088FEF92002F097FE062097
:1020500002F082FE102002F07FFE292002F07CFEBA
:10206000002002F079FE3A2002F088FE552002F0AE
:1020700073FE112002F082FE642003F0FFFA292093
:1020800002F07CFE352002F079FE002002F064FEB2
:10209000512002F073FEFF2002F05EFE532002F09A
:1020A0006DFE2C2002F058FE552002F067FE8220C3
:1020B00002F052FE2C20FCE3B0427DD14FF470447C
:1020C0005521204602F072FE651CAA21284602F026
:1020D0006DFEA61C5221304602F068FEE71C082166
:1020E000384602F063FE4FF204080121404602F038
:1020F0005DFE0D214FF4304002F058FE0D214BF2F1
:10210000010002F053FE0D214BF2020002F04EFEE0
:102110004FF436493421484602F048FE34214BF250
:10212000016002F043FE34214BF2026002F03EFEF9
:102130004FF4314A0D21504602F038FE4BF2011B9C
:102140000D21584602F032FE0D214BF2021002F032
:102150002DFE34214FF4374002F028FE34214BF29B
:10216000017002F023FE34214BF2027002F01EFED9
:1021700000214FF4324002F019FE00214BF2012001
:1021800002F014FE00214BF2022002F00FFE242187
:102190004FF4384002F00AFE24214BF6010002F011
:1021A00005FE24214BF6020002F000FE01214FF44F
:1021B0003F4002F0FBFD00E0FEE30F214FF433400F
:1021C00002F0F4FD0F214BF2013002F0EFFD0F2180
:1021D0004BF2023002F0EAFD34214FF4394002F0B4
:1021E000E5FD34214BF6011002F0E0FD34214BF601
:1021F000021002F0DBFD08214FF4354002F0D6FD5D
:1022000008214BF2015002F0D1FD08214BF202509F
:1022100002F0CCFD03214FF4424002F0C7FD24211F
:102220004FF43A4002F0C2FD24214BF6012002F0A7
:10223000BDFD24214BF6022002F0B8FD00214FF431
:102240003C4002F0B3FD78214BF6014002F0AEFDB8
:1022500000214BF6024002F0A9FD00214FF43D4061
:1022600002F0A4FD78214BF6015002F09FFD002101
:102270004BF6025002F09AFD00214FF43E4002F06E
:1022800095FD64214BF6016002F090FD00214FF4B2
:10229000514002F08BFD33214DF2011002F086FD1A
:1022A00000214DF2021002F081FD34214DF20310A5
:1022B00002F07CFD00214DF2041002F077FD3A217E
:1022C0004DF2051002F072FD00214DF2061002F0F1
:1022D0006DFD4A214DF2071002F068FD00214DF21C
:1022E000081002F063FD5C214DF2091002F05EFD62
:1022F00000214DF20A1002F059FD81214DF20B1020
:1023000002F054FD00214DF20C1002F04FFDA62109
:102310004DF20D1002F04AFD00214DF20E1002F0B8
:1023200045FDE5214DF20F1002F040FD01214DF277
:10233000101002F03BFD13214DF2111002F036FD9A
:1023400001214DF2121002F031FD54214DF2131013
:1023500002F02CFD01214DF2141002F027FD822124
:102360004DF2151002F022FD01214DF2161002F07F
:102370001DFDCA214DF2171002F018FD02214DF289
:10238000181002F013FD00214DF2191002F00EFD9D
:1023900002214DF21A1002F009FD01214DF21B102D
:1023A00002F004FD02214DF21C1002F0FFFC34216A
:1023B0004DF21D1002F0FAFC02214DF21E1002F047
:1023C000F5FC67214DF21F1002F0F0FC02214DF2E6
:1023D000201002F0EBFC84214DF2211002F0E6FC0B
:1023E00002214DF2221002F0E1FCA4214DF2231053
:1023F00002F0DCFC02214DF2241002F0D7FCB721E0
:102400004DF2251002F0D2FC02214DF2261002F00E
:10241000CDFCCF214DF2271002F0C8FC02214DF275
:10242000281002F0C3FCDE214DF2291002F0BEFCA0
:1024300002214DF22A1002F0B9FCF2214DF22B10CC
:1024400002F0B4FC02214DF22C1002F0AFFCFE2190
:102450004DF22D1002F0AAFC03214DF22E1002F0D5
:10246000A5FC10214DF22F1002F0A0FC03214DF22B
:10247000301002F09BFC33214DF2311002F096FC3B
:1024800003214DF2321002F091FC6D214DF2331018
:1024900002F08CFC00214FF4524002F087FC332103
:1024A0004DF2012002F082FC00214DF2022002F0E8
:1024B0007DFC34214DF2032002F078FC00214DF226
:1024C000042002F073FC3A214DF2052002F06EFC6C
:1024D00000214DF2062002F069FC4A214DF207204E
:1024E00002F064FC00214DF2082002F05FFC5C2148
:1024F0004DF2092002F05AFC00214DF20A2002F0B0
:1025000055FC81214DF20B2002F050FC00214DF2D0
:102510000C2002F04BFCA6214DF20D2002F046FCEF
:1025200000214DF20E2002F041FCE5214DF20F207A
:1025300002F03CFC01214DF2102002F037FC132187
:102540004DF2112002F032FC01214DF2122002F076
:102550002DFC54214DF2132002F028FC01214DF2F4
:10256000142002F023FC82214DF2152002F01EFC03
:1025700001214DF2162002F019FCCA214DF217205C
:1025800002F014FC02214DF2182002F00FFC002191
:102590004DF2192002F00AFC02214DF21A2002F03D
:1025A00005FC01214DF21B2002F000FC02214DF23E
:1025B0001C2002F0FBFB34214DF21D2002F0F6FB43
:1025C00002214DF21E2002F0F1FB67214DF21F2087
:1025D00002F0ECFB02214DF2202002F0E7FB842107
:1025E0004DF2212002F0E2FB02214DF2222002F006
:1025F000DDFBA4214DF2232002F0D8FB02214DF295
:10260000242002F0D3FBB7214DF2252002F0CEFBAF
:1026100002214DF2262002F0C9FBCF214DF22720E6
:1026200002F0C4FB02214DF2282002F0BFFBDE21A4
:102630004DF2292002F0BAFB02214DF22A2002F0CD
:10264000B5FBF2214DF22B2002F0B0FB02214DF23E
:102650002C2002F0ABFBFE214DF22D2002F0A6FB58
:1026600003214DF22E2002F0A1FB10214DF22F206C
:1026700002F09CFB03214DF2302002F097FB332146
:102680004DF2312002F092FB03214DF2322002F094
:102690008DFB6D214DF2332002F088FB00214FF4B9
:1026A000534002F083FB33214DF2013002F07EFBF8
:1026B00000214DF2023002F079FB34214DF203305B
:1026C00002F074FB00214DF2043002F06FFB3A215E
:1026D0004DF2053002F06AFB00214DF2063002F0A7
:1026E00065FB4A214DF2073002F060FB00214DF2FC
:1026F000083002F05BFB5C214DF2093002F056FB22
:1027000000214DF20A3002F051FB81214DF20B30D5
:1027100002F04CFB00214DF20C3002F047FBA621E9
:102720004DF20D3002F042FB00214DF20E3002F06E
:102730003DFBE5214DF20F3002F038FB01214DF257
:10274000103002F033FB13214DF2113002F02EFB5A
:1027500001214DF2123002F029FB54214DF21330C9
:1027600002F024FB01214DF2143002F01FFB822104
:102770004DF2153002F01AFB01214DF2163002F035
:1027800015FBCA214DF2173002F010FB02214DF269
:10279000183002F00BFB00214DF2193002F006FB5D
:1027A00002214DF21A3002F001FB01214DF21B30E3
:1027B00002F0FCFA02214DF21C3002F0F7FA34214B
:1027C0004DF21D3002F0F2FA02214DF21E3002F0FD
:1027D000EDFA67214DF21F3002F0E8FA02214DF2C6
:1027E000203002F0E3FA84214DF2213002F0DEFACB
:1027F00002214DF2223002F0D9FAA4214DF2233009
:1028000002F0D4FA02214DF2243002F0CFFAB721BF
:102810004DF2253002F0CAFA02214DF2263002F0C4
:10282000C5FACF214DF2273002F0C0FA02214DF255
:10283000283002F0BBFADE214DF2293002F0B6FA60
:1028400002214DF22A3002F0B1FAF2214DF22B3082
:1028500002F0ACFA02214DF22C3002F0A7FAFE2170
:102860004DF22D3002F0A2FA03214DF22E3002F08B
:102870009DFA10214DF22F3002F098FA03214DF20B
:10288000303002F093FA33214DF2313002F08EFAFB
:1028900003214DF2323002F089FA6D214DF23330CE
:1028A00002F084FA00214FF4544002F07FFA332101
:1028B00000E080E34DF2014002F078FA00214DF291
:1028C000024002F073FA34214DF2034002F06EFA36
:1028D00000214DF2044002F069FA3A214DF2054020
:1028E00002F064FA00214DF2064002F05FFA4A213C
:1028F0004DF2074002F05AFA00214DF2084002F072
:1029000055FA5C214DF2094002F050FA00214DF2D7
:102910000A4002F04BFA81214DF20B4002F046FAD8
:1029200000214DF20C4002F041FAA6214DF20D407B
:1029300002F03CFA00214DF20E4002F037FAE52198
:102940004DF20F4002F032FA01214DF2104002F038
:102950002DFA13214DF2114002F028FA01214DF217
:10296000124002F023FA54214DF2134002F01EFAF5
:1029700001214DF2144002F019FA82214DF2154066
:1029800002F014FA01214DF2164002F00FFACA21AA
:102990004DF2174002F00AFA02214DF2184002F0FF
:1029A00005FA00214DF2194002F000FA02214DF221
:1029B0001A4002F0FBF900E001E301214DF21B4057
:1029C00002F0F4F902214DF21C4002F0EFF934213B
:1029D0004DF21D4002F0EAF902214DF21E4002F0D4
:1029E000E5F967214DF21F4002F0E0F902214DF2B6
:1029F000204002F0DBF984214DF2214002F0D6F9AB
:102A000002214DF2224002F0D1F9A4214DF22340DF
:102A100002F0CCF902214DF2244002F0C7F9B721AF
:102A20004DF2254002F0C2F902214DF2264002F09B
:102A3000BDF9CF214DF2274002F0B8F902214DF245
:102A4000284002F0B3F9DE214DF2294002F0AEF940
:102A500002214DF22A4002F0A9F9F2214DF22B4059
:102A600002F0A4F902214DF22C4002F09FF9FE2160
:102A70004DF22D4002F09AF903214DF22E4002F062
:102A800095F910214DF22F4002F090F903214DF2FB
:102A9000304002F08BF933214DF2314002F086F9DB
:102AA00003214DF2324002F081F96D214DF23340A5
:102AB00002F07CF900214FF4554002F077F9332100
:102AC0004DF2015002F072F900214DF2025002F075
:102AD0006DF934214DF2035002F068F900214DF2F6
:102AE000045002F063F93A214DF2055002F05EF90C
:102AF00000214DF2065002F059F94A214DF20750DB
:102B000002F054F900214DF2085002F04FF95C2117
:102B10004DF2095002F04AF900214DF20A5002F03C
:102B200045F981214DF20B5002F040F900214DF2A0
:102B30000C5002F03BF9A6214DF20D5002F036F98F
:102B400000214DF20E5002F031F9E5214DF20F5007
:102B500002F02CF901214DF2105002F027F9132157
:102B60004DF2115002F022F901214DF2125002F003
:102B70001DF954214DF2135002F018F901214DF2C4
:102B8000145002F013F982214DF2155002F00EF9A3
:102B900001214DF2165002F009F9CA214DF21750E9
:102BA00002F004F902214DF2185002F0FFF8002162
:102BB0004DF2195002F0FAF802214DF21A5002F0CB
:102BC000F5F801214DF21B5002F0F0F802214DF210
:102BD0001C5002F0EBF834214DF21D5002F0E6F8E3
:102BE00002214DF21E5002F0E1F867214DF21F5014
:102BF00002F0DCF802214DF2205002F0D7F88421D7
:102C00004DF2215002F0D2F802214DF2225002F092
:102C1000CDF8A4214DF2235002F0C8F802214DF264
:102C2000245002F0C3F8B7214DF2255002F0BEF84F
:102C300002214DF2265002F0B9F8CF214DF2275073
:102C400002F0B4F802214DF2285002F0AFF8DE2174
:102C50004DF2295002F0AAF802214DF22A5002F05A
:102C6000A5F8F2214DF22B5002F0A0F802214DF20E
:102C70002C5002F09BF8FE214DF22D5002F096F8F8
:102C800003214DF22E5002F091F810214DF22F50F9
:102C900002F08CF803214DF2305002F087F8332116
:102CA0004DF2315002F082F803214DF2325002F021
:102CB0007DF86D214DF2335002F078F800214FF489
:102CC000564002F073F833214DF2016002F06EF8C5
:102CD00000214DF2026002F069F834214DF20360E8
:102CE00002F064F800214DF2046002F05FF83A212E
:102CF0004DF2056002F05AF800214DF2066002F034
:102D000055F84A214DF2076002F050F800214DF2CB
:102D1000086002F04BF85C214DF2096002F046F8C1
:102D200000214DF20A6002F041F881214DF20B6062
:102D300002F03CF800214DF20C6002F037F8A621B9
:102D40004DF20D6002F032F800214DF20E6002F0FB
:102D50002DF8E5214DF20F6002F028F801214DF227
:102D6000106002F023F813214DF2116002F01EF8FA
:102D700001214DF2126002F019F854214DF2136056
:102D800002F014F801214DF2146002F00FF88221D4
:102D90004DF2156002F00AF801214DF2166002F0C2
:102DA00005F8CA214DF2176002F000F802214DF239
:102DB000186001F0FBFF00214DF2196001F0F6FFF1
:102DC00002214DF21A6001F0F1FF01214DF21B606A
:102DD00001F0ECFF02214DF21C6001F0E7FF34210D
:102DE0004DF21D6001F0E2FF02214DF21E6001F084
:102DF000DDFF67214DF21F6001F0D8FF02214DF287
:102E0000206001F0D3FF84214DF2216001F0CEFF5C
:102E100002214DF2226001F0C9FFA4214DF223608E
:102E200001F0C4FF02214DF2246001F0BFFFB72181
:102E30004DF2256001F0BAFF02214DF2266001F04B
:102E4000B5FFCF214DF2276001F0B0FF02214DF216
:102E5000286001F0ABFFDE214DF2296001F0A6FFF2
:102E600002214DF22A6001F0A1FFF2214DF22B6008
:102E700001F09CFF02214DF22C6001F097FFFE2132
:102E80004DF22D6001F092FF03214DF22E6001F012
:102E90008DFF10214DF22F6001F088FF03214DF2CC
:102EA000306001F083FF33214DF2316001F07EFF8D
:102EB00003214DF2326001F079FF6D214DF2336054
:102EC00001F074FF5521204601F070FFAA21284629
:102ED00001F06CFF5221304601F068FF08213846AE
:102EE00001F064FF0021404601F060FFCC21504614
:102EF00001F05CFF0021584601F058FF05214846CB
:102F000001F054FF70214FF4374001F04FFF702162
:102F10004BF2017001F04AFF01214FF4384001F0FB
:102F200045FF03214BF6010001F040FF03214BF662
:102F3000020001F03BFF03214BF6030001F036FFD6
:102F400002214FF43C4001F031FF00214BF60140DB
:102F500001F02CFF00214BF6024001F027FFD021A9
:102F60004FF4494001F022FF02214CF6011001F01C
:102F70001DFF50214CF6021001F018FF50214CF6B5
:102F8000031001F013FF50214CF6041001F00EFF66
:102F900000214FF4545001F009FF55214FF46850BF
:102FA00001F004FF4FF4885001F0E8FE782002F0B1
:102FB00079FB4FF4245001F0E1FE01F02CBAA0F5AA
:102FC00013414FF4E06740F2022A40F23F154FF4FC
:102FD000274925392BD0FE1D4FF40178C91E7DD01D
:102FE0004FF4887B4FF41C59083178D0113977D0D1
:102FF000A0F5A841083974D0A0F5A8514FF4407B42
:1030000005396FD0B1F520416DD0B1F580516BD04D
:10301000A0F50941893968D0A0F58A4131397DD0C0
:10302000091F7CD0A0F5C851633979D0C5E747F6B0
:10303000F001E52001F0BAFE2146012001F0B6FEC4
:103040003946022001F0B2FE41F23001032001F0C6
:10305000ADFE0021042001F0A9FE5146082001F038
:10306000A5FE0021092001F0A1FE00210A2001F0A7
:103070009DFE00210C2001F099FE00210D2001F0A1
:1030800095FE00210F2001F091FE0021102001F09B
:103090008DFE0721112001F089FE0021122001F090
:1030A00085FE0021132001F081FE0021072001F0A0
:1030B0007DFE41F29061102001F078FE40F2272160
:1030C000112001F073FE9D21122001F06FFE4FF4DC
:1030D000C851132001F06AFE252107E07FE028E1B6
:1030E000CBE19DE237E3FDE3FDE3FDE3292001F0C1
:1030F0005DFE0D212B2001F059FE0721302001F04B
:1031000055FE40F20331312001F050FE0321322000
:1031100001F04CFE40F20621352002E0FEE3FEE322
:10312000FEE301F043FE0821362001F03FFE40F2AD
:103130000641372001F03AFE4FF44171382001F08A
:1031400035FE0721392001F031FE40F202613C20BA
:1031500001F02CFE08213D2001F028FE0021502026
:1031600001F024FEEF21512001F020FE0021522029
:1031700001F01CFE2946532001F018FE494660204C
:1031800001F014FE0121612001F010FE00216A20EF
:1031900001F00CFE0021802001F008FE00218120BA
:1031A00001F004FE0021822001F000FE00218320B6
:1031B00001F0FCFD0021842001F0F8FD00218520B4
:1031C00001F0F4FD1021902001F0F0FD4FF4C061FA
:1031D000922001F0EBFD40F233110720FEE341F2B3
:1031E0008F01EC2001F0E2FD41F23421EF2001F0EB
:1031F000DDFD2146012001F0D9FD3946022001F014
:10320000D5FD41F23001032001F0D0FD0021042062
:1032100001F0CCFD5146082001F0C8FD0021092035
:1032200001F0C4FD00210A2001F0C0FD01210C20A5
:1032300001F0BCFD00210D2001F0B8FD00210F20A0
:1032400001F0B4FD0021102001F0B0FD0721112094
:1032500001F0ACFD0021122001F0A8FD0021132097
:1032600001F0A4FD0121072001F0A0FD322002F0B1
:1032700005FA41F29041102001F098FD40F227211B
:10328000112001F093FD322002F0F8F98A2112207A
:1032900001F08CFD322002F0F1F94FF4D0511320EF
:1032A00001F084FD0621292001F080FD0D212B2055
:1032B00001F07CFD322002F0E1F90021202001F034
:1032C00075FD0021212001F071FD322002F0D6F9B8
:1032D0000021302001F06AFD40F20461312001F04C
:1032E00065FD40F20531322001F060FD00213520FE
:1032F00001F05CFD40F60941362001F057FD4146E2
:10330000372001F053FD40F20131382001F04EFD2D
:103310003146392001F04AFD00213C2001F046FDF4
:1033200040F60A213D2001F041FD322002F0A6F9CD
:103330003AE10021084601F039FD2146012001F063
:1033400035FD3946022001F031FD41F23001032004
:1033500001F02CFD0021042001F028FD5146082039
:1033600001F024FD0021092001F020FD00210A20A8
:1033700001F01CFD01210C2001F018FD00210D20A1
:1033800001F014FD00210F2001F010FD322002F0A9
:1033900075F940F20111072001F008FD322002F01A
:1033A0006DF94FF48651102001F000FD0721112026
:1033B00001F0FCFC5C465946122001F0F7FC4FF48A
:1033C0003061132001F0F2FC0021292001F0EEFC15
:1033D00044F210012B2001F0E9FC0021502001F003
:1033E000E5FCEF21512001F0E1FC0021522001F029
:1033F000DDFC2946532001F0D9FC4946602001F04C
:10340000D5FC0121612001F0D1FC00216A2001F0EE
:10341000CDFC0021802001F0C9FC0021812001F0B9
:10342000C5FC0021822001F0C1FC0021832001F0B5
:10343000BDFC0021842001F0B9FC0021852001F0B1
:10344000B5FC1021902001F0B1FC0021922001F088
:10345000ADFC0121932001F0A9FC2146952001F04B
:10346000A5FC0021972001F0A1FC0021982001F08B
:103470009DFC40F27311072079E341F21401E7202B
:1034800001F094FC2146012001F090FC4FF4007102
:10349000022001F08BFC41F23801032001F086FC90
:1034A0005146082001F082FC0021092001F07EFC39
:1034B00000210A2001F07AFC00210C2001F076FCAA
:1034C00000210D2001F072FC00210F2001F06EFCA4
:1034D0000021102001F06AFC0721112001F066FC98
:1034E0000021122001F062FC0021132001F05EFC9B
:1034F000C82002F0C3F841F29061102001F056FCA0
:1035000040F22721112001F051FC322002F0B6F8E0
:103510000C21122001F04AFC322002F0AFF84FF4E7
:103520000061132001F042FC1121292001F03EFC32
:103530000B212B2001F03AFC322002F09FF80021F1
:10354000202001F033FC2946212001F02FFC00212E
:10355000302001F02BFC4FF483742146312001F020
:1035600025FC0021322001F021FC4146352001F0EC
:103570001DFC41F20A61362001F018FC314637206B
:1035800001F014FC2146382001F010FC31463920AE
:1035900001F00CFC40F202413C2001F007FC40F637
:1035A0000F413D2001F002FC0021502001F0FEFB04
:1035B000EF21512001F0FAFB0021522001F0F6FB2F
:1035C0002946532001F0F2FB4946602001F0EEFB52
:1035D0000121612001F0EAFB00216A2001F0E6FBF5
:1035E0000021802001F0E2FB0021812001F0DEFBC0
:1035F0000021822001F0DAFB0021832001F0D6FBBC
:103600000021842001F0D2FB0021852001F0CEFBB7
:103610001021902001F0CAFB4FF4C0619220FDE31D
:103620002146012001F0C2FB3946022001F0BEFB19
:1036300041F23001032001F0B9FB0021042001F028
:10364000B5FB40F20721082001F0B0FB0021092062
:1036500001F0ACFB00210A2001F0A8FB00210C20A6
:1036600001F0A4FB00210D2001F0A0FB00210F20A0
:1036700001F09CFB142002F001F841F2B06110202F
:1036800001F094FB0121112001F090FB0121172092
:1036900001F08CFB4FF49C71122001F087FB4FF47A
:1036A0000061132001F082FB0921292001F07EFB3B
:1036B00009212A2001F07AFB0021A42001F076FBE9
:1036C0000021502001F072FBEF21512001F06EFB30
:1036D0000021522001F06AFB2946532001F066FBCD
:1036E0004946602001F062FB0121612001F05EFB90
:1036F00000216A2001F05AFB0021802001F056FBD6
:103700000021812001F052FB0021822001F04EFBBC
:103710000021832001F04AFB0021842001F046FBB8
:103720000021852001F042FB1321902001F03EFB97
:103730000021922001F03AFB0321932001F036FB97
:103740005946952001F032FB40F27311072001F039
:103750002DFB32200DE10021072001F027FB322054
:1037600001F08CFF4FF48E71122001F01FFB01213C
:10377000A42001F01BFB0F21082001F017FB0821FA
:103780000A2001F013FB08210D2001F00FFB314648
:10379000302001F00BFB0721312001F007FB40F244
:1037A0000361322001F002FB3946332001F0FEFABA
:1037B0005146342001F0FAFA0221352001F0F6FAE0
:1037C00041F60F71362001F0F1FA3146372001F051
:1037D000EDFA0021382001F0E9FA0021392001F04A
:1037E000E5FA31463A2001F0E1FA00213B2001F0F0
:1037F000DDFA07213C2001F0D9FA00213D2001F03B
:10380000D5FA322001F03AFF0121072001F0CEFA6B
:103810000121172001F0CAFA322001F02FFF4FF4E6
:10382000BD51102001F0C2FA40F21721112001F021
:10383000BDFA4FF48F71122001F0B8FA4FF47061A5
:10384000132001F0B3FA00212A2001F0AFFA0A2177
:10385000292001F0ABFA4FF49F71122001F0A6FA73
:103860000021502001F0A2FAEF21512001F09EFA30
:103870000021522001F09AFA2946532001F096FACD
:103880004946602001F092FA0121612001F08EFA90
:1038900000216A2001F08AFA0021802001F086FAD6
:1038A0000021812001F082FA0021822001F07EFABD
:1038B0000021832001F07AFA0021842001F076FAB9
:1038C0000021852001F072FA1321902001F06EFA98
:1038D0005946922001F06AFA0521932001F066FA18
:1038E000002102E048E043E10AE2952001F05EFA9F
:1038F0000021972001F05AFA0021982001F056FA91
:103900002146012001F052FA3946022001F04EFA18
:1039100041F23801032001F049FA02E0A4E257E342
:10392000FDE30021042001F041FA00210C2001F008
:103930003DFA00210F2001F039FA0021202001F08A
:1039400035FA0021212001F031FA2121072001F070
:103950002DFA142001F092FE6121072001F026FAD1
:10396000142001F08BFE40F27311072001F01EFAC3
:10397000142001F083FE2AE30021084601F016FA24
:103980000021084601F012FA0021084601F00EFA63
:103990000021084601F00AFA0121A42001F006FAEC
:1039A000142001F06BFE4946602001F0FFF95646F5
:1039B0005146082001F0FAF94FF40571302001F06A
:1039C000F5F943F21571312001F0F0F940F204618C
:1039D000322001F0EBF940F6166100E0C3E033203D
:1039E00001F0E4F942F21121342001F0DFF94FF443
:1039F000A851352001F0DAF948F20751362001F0DC
:103A0000D5F941F20741372001F0D0F941F20341E5
:103A1000382001F0CBF92021392001F0C7F91A2113
:103A2000902001F0C3F90021102001F0BFF9072117
:103A3000112001F0BBF90021122001F0B7F900219B
:103A4000132001F0B3F9142001F018FE4FF4E661E1
:103A5000102001F0ABF940F23711112001F0A6F966
:103A6000142001F00BFE4FF4DC71122001F09EF9DE
:103A7000142001F003FE4FF47061132001F096F959
:103A800080212A2001F092F94821292001F08EF9A5
:103A9000142001F0F3FD2146012001F087F9394699
:103AA000022001F083F941F23801032001F07EF990
:103AB0003146082001F07AF900210A2001F076F958
:103AC00000210C2001F072F900210D2001F06EF9A7
:103AD00030210E2001F06AF90021502001F066F932
:103AE000EF21512001F062F90021522001F05EF92E
:103AF0002946532001F05AF94946602001F056F951
:103B00000121612001F052F900216A2001F04EF9F3
:103B10001121902001F04AF94FF4C061922001F088
:103B200045F940F20241932001F040F9022194202E
:103B300001F03CF9142001F0A1FD0121072001F062
:103B400035F9142001F09AFD6121072001F02EF9CA
:103B500040F27311072001F029F90021202001F023
:103B600025F90021212001F021F9222100202CE259
:103B70000021084601F01AF90021084601F016F963
:103B8000142001F07BFD0021084601F00FF900210F
:103B9000084601F00BF90021084601F007F9002161
:103BA000084601F003F90121A42001F0FFF81420D8
:103BB00001F064FD4946602001F0F8F840F6060186
:103BC000082001F0F3F840F203773946302001F085
:103BD000EDF80121312001F0E9F80421322001F053
:103BE000E5F84FF48171332001F0E0F85E46594664
:103BF000342001F0DBF840F20311352001F0D6F853
:103C00001F21362001F0D2F83946372001F0CEF8D6
:103C10000121382001F0CAF80421392001F0C6F84A
:103C20001521902001F0C2F84FF48261102001F0BC
:103C3000BDF840F24721112001F0B8F84FF4DE71D1
:103C4000122001F0B3F84FF46061132001F0AEF8D8
:103C5000782001F013FD2146012001F0A7F84FF470
:103C60000071022001F0A2F841F23001032001F0BE
:103C70009DF808210A2001F099F800210C2001F09C
:103C800095F820210E2001F091F800210F2001F07D
:103C90008DF80021202001F089F80021212001F079
:103CA00085F83D212A2001F081F8142001F0E6FC7E
:103CB0002D21292001F07AF80021502001F076F81A
:103CC0004DF2EF01512001F071F80021522001F076
:103CD0006DF82946532001F069F80021612001F0B8
:103CE00065F800216A2001F061F83146922001F068
:103CF0005DF80521932001F059F82146FFF7BBBB81
:103D00000121002001F052F84AF6A401032001F03D
:103D10004DF800210C2001F049F840F60C010D206F
:103D200001F044F84FF42C510E2001F03FF8B0217F
:103D30001E2001F03BF842F63F31012001F036F839
:103D40004FF4C061022001F031F80021102001F091
:103D50002DF846F27801112001F028F80021052005
:103D600001F024F80021062001F020F84EF61C7125
:103D7000162001F01BF80321172001F017F840F27C
:103D80003321072001F012F800210B2001F00EF87A
:103D900000210F2001F00AF80021412001F006F86F
:103DA0000021422001F002F80021482000F0FEFF2F
:103DB0002946492000F0FAFF00214A2000F0F6FFD2
:103DC00000214B2000F0F2FF4FF46F41442000F03F
:103DD000EDFF0021452000F0E9FF2946462000F0D4
:103DE000E5FF3146302000F0E1FF444641463120F6
:103DF00000F0DCFF2146322000F0D8FF40F20255EF
:103E00002946332000F0D2FF691D342000F0CEFF98
:103E10002146352000F0CAFF214600E07AE1362035
:103E200000F0C4FF2946372000F0C0FF40F2023402
:103E300021463A2000F0BAFF21463B2000F0B6FFB1
:103E40000021232000F0B2FF0021242000F0AEFF6B
:103E50004FF40041252000F0A9FF00214F2000F081
:103E6000A5FF00214E20B0E00121002000F09EFFC0
:103E70000A2001F003FC41F22861102000F096FFB7
:103E80000E21122000F092FF40F63921132000F09D
:103E90008DFF0A2001F0F2FB4021112000F086FF87
:103EA0005021152000F082FF0A2001F0E7FB1E21BF
:103EB000122000F07BFF0A2001F0E0FB4FF4B1512B
:103EC000102000F073FF42F63921132000F06EFF3E
:103ED0000A2001F0D3FB2146012000F067FF59467C
:103EE000022000F063FF41F23801032000F05EFF82
:103EF0005146082000F05AFF08210A2000F056FF22
:103F00000021302000F052FF40F20241312000F049
:103F10004DFF4FF48371322000F048FF40F203510F
:103F2000332000F043FF4FF48271342000F03EFF55
:103F300040F20131352000F039FF3146362000F0E3
:103F400035FF40F20531372000F030FF4FF40271A9
:103F5000382000F02BFF40F60B71392000F026FFCF
:103F60000221412000F022FF4946602000F01EFFA0
:103F70000121612000F01AFF4FF40471902000F03D
:103F800015FF4FF48571922000F010FF042193205B
:103F900000F00CFF2146A02000F008FF01210720BF
:103FA00000F004FF2121072000F000FF232107205B
:103FB00000F0FCFE3321072000F0F8FE40F2331140
:103FC000072000F0F3FE0021A02000F0EFFE22E227
:103FD0003021152000F0EAFE10219A2000F0E6FEC4
:103FE0002021112000F0E2FE43F22841102000F0D1
:103FF000DDFE0221122000F0D9FE41F2380113202B
:1040000000F0D4FE282001F039FB1221084600F010
:10401000CDFE282001F032FB43F22041102000F0B9
:10402000C5FE43F23801132000F0C0FE462001F027
:1040300025FB0021302000F0B9FE40F20241312082
:1040400000F0B4FE40F20731322000F0AFFE4FF432
:104050004171332000F0AAFE0421342000F0A6FEB6
:1040600040F20141352000F0A1FE3146362000F03B
:104070009DFE40F20531372000F098FE4FF4C265F6
:104080002946382000F092FE2946392000F08EFEA5
:104090002146012000F08AFE5946022000F086FEEB
:1040A00041F23001032000F081FE40F608010820B3
:1040B00000F07CFE08210A2000F078FE49466020CE
:1040C00000F074FE0121612000F070FE4FF49F713A
:1040D000902000F06BFE2146922000F067FE214602
:1040E000932000F063FE4FF44051A02000F05EFEEC
:1040F0001021A32000F05AFE0121072000F056FEF7
:104100002121072000F052FE2321072000F04EFE5F
:104110003321072000F04AFE40F23311EEE5FFE7BD
:10412000E22000F02BFE2746C14C27616515656132
:10413000DFF800831D21C8F8001080266661266123
:104140002561276165610220C8F80000666126616B
:104150002561276165610420C8F800006661266159
:104160002561642001F09EFAE02000F007FE27613F
:1041700065614FF0010AC8F800A0666126612561FB
:104180000A2001F07BFAE02000F0F8FD276165616C
:104190004FF0030BC8F800B06661266125610C2062
:1041A00001F06CFA012000F0E9FD0A2001F066FA46
:1041B000E62000F0E3FD276165612F21C8F80010BB
:1041C00066612661256127616561FF20C8F80000EE
:1041D00066612661256127616561C8F80000666136
:1041E00026612561B02000F0C9FD276165612021AD
:1041F000C8F80010666126612561276165614FF08E
:104200000009C8F800906661266125612761656133
:10421000C8F800B06661266125612761656140F2DA
:104220001F31C8F80010666126612561276165614C
:10423000C8F800A06661266125612761656140F2CA
:10424000DF11C8F80010666126612561276165618C
:10425000C8F80090666126612561B42000F08EFDEB
:10426000276165610420C8F8000066612661256148
:104270002761656140F21F41C8F800106661266140
:10428000256127616561C8F8009066612661256136
:10429000276165612E21C8F80010666126612561DD
:1042A000276165614146C8F8009066612661256115
:1042B00027616561C8F80090666126612561276104
:1042C0006561C8F8009066612661256127616561B6
:1042D000C1F80090666126612561B62000F04EFDB0
:1042E000276165610220C8F80000666126612561CA
:1042F000276165614FF40371C8F80010666126619B
:10430000256127616561C8F80090666126612561B5
:10431000276165611721C8F8001066612661256173
:10432000276165611521C8F8001066612661256165
:1043300027616561C8F80090666126612561276183
:104340006561C8F80090666126612561F02000F083
:1043500015FD27616561C8F800B0666126612561B9
:10436000292000F00BFDD02000F008FD27616561D9
:10437000C8F80090666126612561BE2000F0FEFC51
:10438000276165610521C8F8001066612661256115
:1043900027616561FE21C8F800106661266125610C
:1043A000276165614146C8F800A066612661256104
:1043B00027616561C8F80090666126612561276103
:1043C0006561C8F8009066612661256127616561B5
:1043D000C1F80090666126612561B82000F0CEFC2E
:1043E00027616561C8F800B06661266125612761B3
:1043F0006561C8F800A0666126612561BA2000F0F9
:10440000BDFC27616561C8F800A066612661256171
:10441000642000F05BF80020FCF782FA06490120D6
:10442000C1F8A8014FF6FF70FCF738FABDE8F88F25
:10443000001001400C0C0140000022420346012004
:1044400000E05843491EC9B2FBD270472DE9F0473E
:10445000DFF85C904FF08830C9F8000009F10405DE
:104460002860134E00200C363060124CA8152061D5
:10447000470067614FF04008C4F814800E488088F8
:10448000A0F50941893902D1022001F00BF9084851
:1044900008300068C4F8108080B227614FF03331D3
:1044A000C9F8001029604FF6FF713160BDE8F08750
:1044B000000C0140001001406401002010B500F024
:1044C0005DFCBDE81040FFF7C1BF00002DE9F047DB
:1044D0008146BE2000F052FC204C4FF480772761CB
:1044E00065156561DFF878800521C8F80010802621
:1044F000666126612561276165614846FBF78DFE8F
:104500004FF06632174BFBF70DFEFBF7C0FEC8F805
:104510000000666126612561276165610121C8F897
:10452000001066612661256127616561FF21C8F879
:104530000010666126612561276165610020C8F869
:10454000000066612661256127616561C8F8000089
:10455000666126612561BDE8F0870000001001401A
:104560000C0C0140666604402DE9F04FB84C002663
:104570002146A279898846F6040341F66317012A89
:1045800001D02AB11DE099421BD0B94202D118E0F6
:10459000B94216D1082814D2DFE800F00406080A50
:1045A0000C0E101206200CE007200AE0042008E0A0
:1045B000052006E0012004E0002002E0032000E0E6
:1045C0000220A1F5134C45F2103245F21055BCF112
:1045D000410C07D0994205D0914203D0A94201D0A5
:1045E000B9427DD1082812D2DFE800F01104060894
:1045F0000A0C0E1080260AE0402608E0C02606E0DD
:10460000202604E0602602E0A02600E0E026A94281
:1046100002D14FF4585000E03620914205D0A94213
:1046200003D0B94201D046F00806994201D146F0C4
:104630000206314600F0BAFBA188B9420AD0B006A2
:104640002088628802D5904202D303E0904201D9CB
:10465000228060807F4EDFF800B24FF0000A4FF4F6
:1046600080774FF40078A9427BD1608900F086FB07
:104670003761C6F81480D946CBF800A08025756153
:104680003561C6F810806089401C80B200F076FB6E
:104690003761C6F81480C9F800A075613561C6F8A5
:1046A00010806089801C80B200F068FB3761C6F81A
:1046B00014802088401E0112C9F800107561356110
:1046C000C6F810806089C01C80B200F057FB3761CB
:1046D000C6F814802078401EC1B2C9F8001000E06E
:1046E00099E075613561C6F81080A08900F046FB3D
:1046F0003761C6F81480C9F800A075613561C6F845
:104700001080A089401C80B200F038FB3761C6F8E9
:104710001480C9F800A075613561C6F81080A089C1
:10472000801C80B200F02AFB3761C6F814806088D4
:10473000401E0112C9F8001075613561C6F810807D
:10474000A089C01C80B200F019FB3761C6F8148044
:10475000A078401EC1B2C9F800107561356156E0FD
:10476000FFE7A146608900F009FB3761C6F81480B5
:104770005D46CBF800A0802474613461C6F81080D7
:104780003761C6F81480CBF800A074613461C6F8B4
:1047900010803761C6F81480B9F80000401E01127D
:1047A000296074613461C6F810803761C6F81480DE
:1047B000C0B2286074613461C6F81080B9F80C008A
:1047C00000F0DCFA3761C6F81480C5F800A0746107
:1047D0003461C6F810803761C6F81480C5F800A0AF
:1047E00074613461C6F810803761C6F81480B9F876
:1047F0000200401E0112296074613461C6F8108005
:104800003761C6F81480C0B2286074613461C6F89C
:104810001080BDE8F08F082812D2DFE800F004060F
:1048200008110A0C0E1030260AE0102608E0202697
:1048300006E0382604E0282602E0182600E00826D4
:1048400046F48051BDE8F04F032000F0AFBA0000FD
:1048500064010020001001400C0C01402DE9F34FD1
:1048600004464FEA102900F0FF0A0198DFF834836C
:10487000060AC5B2B8F804104046DFF82CB34089E8
:10488000A1F51342413A17D0A1F5A642103A13D030
:104890004346A1F5D0479A791B881B1B5B1E043F3A
:1048A00045D0A1F5C857633F7ED0A1F5AA47103F78
:1048B0007BD0012A7AD06AE100F060FA4FF4807070
:1048C0005C46CBF810004700CBF814704946DFF87F
:1048D000DC92C9F800104FF08008CBF81480CBF8B8
:1048E0001080CBF81070CBF81000CBF81470C9F81A
:1048F00000A0CBF81480C4F810802761A9488089F3
:1049000000F03CFA781020616761C9F80060C4F8D3
:104910001480C4F81080276120616761C9F80050D5
:10492000C4F81480C4F810802761BDE8FC8F012A08
:1049300000D19CB200F022FA4FF480705F46CBF8B1
:1049400010004FF40078CBF81480DFF860A2210A41
:10495000CAF800104FF08009CBF81490CBF81090F3
:10496000CBF81080CBF81000CBF81480E1B2CAF875
:104970000010CBF81490C7F81090C7F81080894841
:10498000808900F0FBF94FF480703861C7F814801B
:10499000CAF80060C7F81490C7F81090C7F81080E4
:1049A0003861C7F8148002E00AE0A9E0EEE0CAF836
:1049B0000050C7F81490C7F81090C7F81080B4E7FB
:1049C000002A6BD0DFF8DC8100F0D8F94FF4807456
:1049D0005846CBF810406200CBF81420734FC7F84C
:1049E00000908021CBF81410CBF81010CBF81020D9
:1049F000CBF81040CBF81420C7F800A0CBF8141067
:104A0000CBF81010CBF8102004614261B8F80030E8
:104A10005B1E4FEA232CC7F800C0416101610261AF
:104A200004614261DBB23B604161016102615D4C46
:104A3000A08900F0A3F94FF480775846CBF81070A6
:104A40007900CBF81410DFF864C1CCF80060802244
:104A5000CBF81420CBF81020CBF81010CBF8107046
:104A6000CBF81410CCF80050CBF81420CBF8102061
:104A7000CBF81010CBF81070416163885B1E1C12DC
:104A8000CCF8004042610261016107614161DBB223
:104A9000CCF8003042610261016146E71FFA83F8F9
:104AA00000F06CF94FF480735846CBF81030590081
:104AB000CBF814103D4C002727608022CBF814203F
:104AC000CBF81020CBF81010CBF81030CBF8141026
:104AD0002760CBF81420CBF81020CBF8101003611E
:104AE00041614FEA18272760426102610161036159
:104AF000416108F0FF03236042610261016196E7B2
:104B000000F03CF94FF480705C46CBF810004FF495
:104B10000078CBF814804846DFF89090C9F8000080
:104B20008027CBF81470CBF81070CBF810801D489C
:104B30004089401C80B200F021F978002061C4F85F
:104B40001480C9F800A067612761C4F81080154877
:104B5000808900F013F978002061C4F81480C9F846
:104B6000006067612761C4F810800E488089401C8E
:104B700080B200F003F978002061C4F81480C9F80D
:104B8000005067612761C4F81080CEE69CB22146D0
:104B900000F00CF9B8F80C000199BDE8FC4F00F0EA
:104BA00005B9000064010020001001400C0C014018
:104BB0002DE9F84F82461F460C468B46580700D019
:104BC000012000EBD70079084843203AC0B202F038
:104BD000FF090026009041E00C2F10D0102F12D0BA
:104BE000182F3ED1204909EBC90001EB80004FF09E
:104BF0000008855D28060AD51C4802880BE009EBF1
:104C000049001B49F1E71B4901EB0910EFE70A983E
:104C100028B91648428821465046FBF71BFF680614
:104C2000050E1548641CA4B24088A04219D9A4EB13
:104C30000B00B84209D10AF101001FFA80FA0E48B0
:104C40005C46018851450CD906E008F1010000F0EE
:104C5000FF08B8F1080FCDD3761CF6B20098864253
:104C6000BAD3BDE8F88F0000B86200082000002029
:104C700054580008C85C0008640100202DE9F84F72
:104C8000044600F0FF0810190D46DDE90A761FFA08
:104C900080FA58191FFA80F94FF0000B11E05445C3
:104CA00002D3E819444685B24D450FD23B4629460A
:104CB0002046CDF800B0FFF77BFF04EB570084B22D
:104CC000761C3278A2F120005E28E8D9BDE8F88F82
:104CD0002DE9FF4F81B08046DDF83CA00E984FF0E3
:104CE00000091F4693464C460AF0010546082BE092
:104CF000381B401EC1B20A20FFF7A0FBBBFBF0F03F
:104D00000A21B0FBF1F201FB1200B9F1000F05D14D
:104D1000791E8C4202DA48B14FF001093030C2B23C
:104D200006FB048080B200950E9B08E05FEA0A60F3
:104D300006FB04800E9B80B200950AD530220299B2
:104D4000FFF736FF641CE4B2BC42D1D305B0BDE826
:104D5000F08F2022F3E7000006494FF480720A61C9
:104D60004A154A61044B18608020486108610A6155
:104D700070470000001001400C0C014006494FF440
:104D800080724A614A154A61044B1860802048616C
:104D900008610A6170470000001001400C0C0140DE
:104DA00001480089FFF7EABF6401002010B50C46F6
:104DB000FFF7E4FF06484FF480710161421542613C
:104DC00004490C60802141610161026110BD000055
:104DD000001001400C0C0140FEE770B50446FBF7E3
:104DE000F1FCEE20FBF7BCFC2046FBF7B9FCFBF71F
:104DF000E9FCEF20FBF7B4FC0120FBF77BFC044649
:104E00000020FBF777FC0546FBF7FCFC052000F0D3
:104E100035FC200201B241EA050070BD704738B58B
:104E200000214FF0006000F067F84FF4A06000F040
:104E300059F826208DF8000000258DF801508DF8D6
:104E4000025001248DF80340684600F019F827202D
:104E50008DF800008DF801508DF802408DF8034068
:104E6000684600F00DF825208DF800008DF80150FF
:104E70008DF802408DF80340684600F001F838BD17
:104E800030B50F23C27801780125F2B1144A1268B7
:104E900001F1E02102F4E062C2F5E062120AC2F11F
:104EA0000404D3404278A24084781C401443220179
:104EB00081F80024007800F01F018D404009800037
:104EC00000F1E020C0F8005130BD01F01F00854026
:104ED0004809800000F1E020C0F8805130BD00009A
:104EE0000CED00E0024908430249086070470000E9
:104EF0000000FA050CED00E0024A114001430248AF
:104F00000160704780FFFF1F08ED00E07047000060
:104F100070B500F01EFB044600F005FB29494A89E4
:104F20000B89A21A5A43B1F91230B1F91440D213C5
:104F3000DB02144493FBF4F31A44A2F57A6202FBF9
:104F400002F31C13B1F90E30B1F902506343DB12C6
:104F5000554303EBE523B1F9005003EB85039B1C9C
:104F6000DD1703EB9573B1F90450A0EBA300554393
:104F70006A13B1F90C50C9886C4302EB2442921CAD
:104F8000921002F5004251434CF25032C90B50438B
:104F9000B0F1004F03D24000B0FBF1F002E0B0FBF3
:104FA000F1F040000112494340F6DE325143064A17
:104FB0000914424301EB224101F6CF6100EB2110BD
:104FC00070BD00000A00002043E3FFFF044A0029EF
:104FD000D16901D0014300E08143D16170470000F5
:104FE00000100240044A0029916901D0014300E009
:104FF00081439161704700000010024030B5204AA3
:105000005168204B11F00C0103D0042901D008296C
:1050100001D0036012E05168536801F470114FF041
:10502000020413F4803F04EB914102D053689B03C8
:1050300001D5154B00E0134B5943016051680F2314
:1050400003EA1111114B5C5C0168E1404160546856
:10505000072505EA14241C5D21FA04F484605468D1
:1050600005EAD4241B5DD940C1605268032303EADA
:105070009232064B1B1F9A5CB1FBF2F1016130BD0D
:105080000010024000127A0000093D0028000020B4
:10509000704700000CB5002226480092019201687A
:1050A00041F4803101604FF4A063016801F40031E4
:1050B00001910099491C0091019911B900999942F7
:1050C000F3D10168890333D5012101911A490A6896
:1050D00042F010020A600A6822F003020A600A68BD
:1050E00042F002020A6041684160416841604168E3
:1050F00041F480614160416821F47C114160416864
:1051000041F4E8114160016841F08071016001687B
:105110008901FCD5416821F003014160416841F0FB
:10512000020141604168C1F381010229FAD10CBD3D
:1051300001920CBD001002400020024070470000A8
:105140000F4810B5016841F00101016041680D4A46
:105150001140416001680C4A11400160016821F46E
:1051600080210160416821F4FE0141604FF41F017C
:105170008160FFF78FFF05494FF00060086010BDA8
:10518000001002400000FFF8FFFFF6FE08ED00E00F
:105190001FB54FF4165000900020ADF80400ADF894
:1051A0000600ADF80800ADF80C000C20084CADF876
:1051B0000A006946204600F0F1F8012240F225512C
:1051C000204600F0D2F80121204600F09EF81FBDD5
:1051D0000038014010B50A4C40F22551204600F03D
:1051E000A5F800280AD0204600F02EF9064A054B03
:1051F00051785854491C51700120107010BD0000A6
:105200000038014038000020000000201FB54FF496
:10521000E13000900020ADF80400ADF80600ADF8D4
:105220000800ADF80C000C20084CADF80A006946E7
:10523000204600F0B3F8012240F22551204600F04C
:1052400094F80121204600F060F81FBD00440040A2
:1052500010B50A4C40F22551204600F067F80028AE
:105260000AD0204600F0F0F8064A054BD178585491
:10527000491CD1700120907010BD00000044004016
:105280009C000020000000201FB54FF41640009045
:105290000020ADF80400ADF80600ADF80800ADF848
:1052A0000C000C20084CADF80A006946204600F0BE
:1052B00075F8012240F22551204600F056F80121F0
:1052C000204600F022F81FBD0048004010B50A4CEF
:1052D00040F22551204600F029F800280AD0204647
:1052E00000F0B2F8064A054B51795854491C5171E7
:1052F0000120107110BD0000004800400001002096
:1053000000000020C943018070470029818902D034
:1053100041F4005101E021F40051818170470246BF
:10532000002012880A4200D00120704770B501F0B9
:105330001F0501260024C1F3421306FA05F2012BD2
:105340000FD0022B0FD0838A4FEA1121008813421D
:1053500006FA01F600EA060001D000B10124204659
:1053600070BD8389F0E7038AEEE710B5C1F34213FD
:1053700001F01F040121A140012B07D0022B07D00F
:105380001430002A026805D00A4304E00C30F8E724
:105390001030F6E78A43026010BD000030B50446C5
:1053A000008A85B00D464CF6FF710840E98801433C
:1053B0002182A0894EF6F3110840A9882A89114359
:1053C0006A8902431143A181A08A4FF6FF41084038
:1053D000A9890143A1826846FFF710FE194884425B
:1053E00001D1039800E00298A189090400EBC001F3
:1053F00001EB0010296801D5490000E08900B0FBED
:10540000F1F06422B0FBF2F109010B096FF018050D
:105410006B4300EB8300A3891D044FF0320306D5D4
:1054200003EBC000B0FBF2F000F0070005E003EB77
:105430000010B0FBF2F000F00F000843208105B02F
:1054400030BD0000003801408088C0F3080070477C
:10545000C1F30801818070470FB47FB506460AADDD
:105460000FE05C2914D000F10100252909901DD01E
:105470003046FFF7EDFF40213046FFF750FF002890
:10548000F9D0099801780029EBD17FBC5DF814FBB5
:10549000401C099001786E2903D072291BD10D217F
:1054A00000E00A213046FFF7D3FF13E001786429BA
:1054B00014D073290FD110CD09E03046FFF7C8FF93
:1054C00040213046FFF72BFF0028F9D0641C2178DB
:1054D0000029F2D10998401C0990CCE701CD0A229D
:1054E000694600F017F96C4609E03046FFF7B0FF57
:1054F00040213046FFF713FF0028F9D0641C2178C3
:105500000029F2D1E6E7FEE702E008C8121F08C151
:10551000002AFAD170477047002001E001C1121F34
:10552000002AFBD1704710B5FBF74CF9EE20FBF7D2
:1055300017F9F420FBF714F9F420FBF711F9FBF746
:1055400061F9502000F09AF8F620FFF746FC80B28F
:1055500010BD10B5FBF736F9EE20FBF701F9F4208A
:10556000FBF7FEF82E20FBF7FBF8FBF74BF90A20C0
:1055700000F084F8BDE81040F620FFF72EBC0000D4
:1055800010B5AA20FFF729FC154C2080AC20FFF7AE
:1055900024FC6080AE20FFF720FCA080B020FFF745
:1055A0001CFCE080B220FFF718FC2081B420FFF73C
:1055B00014FC6081B620FFF710FCA081B820FFF733
:1055C0000CFCE081BA20FFF708FC2082BC20FFF72A
:1055D00004FC6082BE20FFF700FCA08210BD00002A
:1055E0000A0000202DE9FC41CF18089C1E2F0BD982
:1055F000102014A1CDE900010346C822114628203D
:10560000FFF73CFBBDE8FC8100230A2509E090FB85
:10561000F5F605FB1600303004F8010B5B1C304634
:105620009BB28B42F3D309E0104692FBF5F205FBE7
:1056300012003030491C04F8010B89B28F42F3D8B4
:10564000E0E700004C6F6E67206572726F72210098
:105650004FF0E0210A6922F004020A610649C008FD
:1056600000EB40020870C2EBC0104FF6FF7202EA76
:10567000C0004880704700000600002008494988A3
:1056800048434FF0E021486100238B61012008610D
:105690000869C20701D0C003FAD50B618B6170475E
:1056A000060000200849097848434FF0E02148618E
:1056B00000238B61012008610869C20701D0C00383
:1056C000FAD50B618B6170470600002010B5FFF71B
:1056D00037FD4820FFF7BCFFFFF7A1FBFAF7B6FE46
:1056E000FFF756FD40210848FFF70CFEFFF78EFD3F
:1056F00040210648FFF706FEFFF7C6FDBDE8104053
:1057000040210348FFF7FEBD00380140004400403F
:1057100000480040F0B5002504460B462E460A2AF4
:1057200002D00E701846F0BD002C1ED006DA4FF0E5
:105730002D00187001F10103C4F1000442F2107051
:105740004FF00A0794FBF0F252EA050C06D002F182
:10575000300503F8015B02FB1044012590FBF7F0D4
:105760000028EFDC1E700846F0BD302018704B1C7E
:10577000F8E700008EB00026FFF7A8FFFBF792FACB
:10578000FAF77AFFFFF7FCFE294F1F20102438801C
:1057900028A0CDE900402346C82264212820FFF735
:1057A0006DFA28A0CDE900401023C82278212820D6
:1057B000FFF764FA00250DF10809DFF894B04FF601
:1057C00007483046FAF74FFD0D903046FAF732FDA4
:1057D0008246FFF79DFBFAF717FDFAF72BFD064609
:1057E0003220FFF74BFF0A220BA93046FFF792FF4A
:1057F0000BA95846FFF730FEA7F800800423642168
:1058000090200D9ACDE90045FFF762FA7821052333
:1058100032460846CDE90045FFF75AFA324650466F
:1058200006230321CDF80090FFF7DCFED1E700004E
:105830002000002054656D70726561747572653A60
:105840000000000050726573737572653A000000C5
:1058500000380140000000000000000000000000CF
:10586000000000003F400000000000000000300089
:10587000400030004000000009000BC03D000BC09C
:105880003D00090018C024407FE022403180000024
:10589000180024C01B000D803240018003801C4092
:1058A00027401C80074000401000600000000000FE
:1058B000000000000000000000001F802040402089
:1058C0000000402020401F8000000000090006006A
:1058D0001F80060009000000040004003F8004004F
:1058E0000400000000100060000000000000000044
:1058F0000400040004000400040000000000004054
:105900000000000000000000002001C00600380078
:10591000400000001F802040204020401F800000E9
:10592000000010403FC000400000000018C02140AF
:105930002240244018400000108020402440244091
:105940001B80000002000D0011003FC0014000005C
:105950003C80244024402440238000001F802440B9
:1059600024403440038000003000200027C038006D
:10597000200000001B802440244024401B800000A5
:105980001C0022C0224022401F80000000000000B6
:10599000084000000000000000000000046000005B
:1059A00000000000000004000A00110020804040B8
:1059B000090009000900090009000000000040403A
:1059C000208011000A000400180020002340240059
:1059D000180000001F802040274029401F40000081
:1059E000004007C039000F0001C0004020403FC008
:1059F000244024401B8000001F8020402040204085
:105A00003080000020403FC0204020401F80000028
:105A100020403FC024402E4030C0000020403FC006
:105A200024402E00300000000F0010802040224053
:105A30003380020020403FC0040004003FC02040EB
:105A4000204020403FC02040204000000060202037
:105A500020203FC02000200020403FC024400B00F9
:105A600030C0204020403FC020400040004000C0E7
:105A70003FC03C0003C03C003FC0000020403FC08E
:105A80000C4023003FC020001F80204020402040C9
:105A90001F80000020403FC0244024001800000068
:105AA0001F802140214020E01FA0000020403FC077
:105AB0002440260019C0004018C024402440224041
:105AC00031800000300020403FC020403000000006
:105AD00020003F80004000403F80200020003E002A
